:100000000C943E000C945B000C945B000C945B0021
:100010000C945B000C945B000C945B000C945B00F4
:100020000C945B000C945B000C945B000C945B00E4
:100030000C945B000C945B000C945B000C945B00D4
:100040000C942D030C945B000C945B000C945B00EF
:100050000C945B000C945B000C945B000C945B00B4
:100060000C945B000C945B000C945B000C945B00A4
:100070000C945B000C945B000C945B0011241FBE7D
:10008000CFEFD8E0DEBFCDBF11E0A0E0B1E0ECEEF5
:10009000FBE202C005900D92A437B107D9F717E033
:1000A000A4E7B1E001C01D92A337B107E1F70E94B8
:1000B0005D000C94F4150C940000CF92EF920F9316
:1000C000DF93CF9300D000D0CDB7DEB71A8219826C
:1000D0001C821B820E94EE02809174019091750136
:1000E00090933D0480933C0486E490E0FC01808181
:1000F000882F90E0909345048093440480914404B9
:100100009091450490934504809344040E940F030A
:100110000E94270280E063E040E020E200E00F2E32
:10012000F7E0EF2EF02DCC240E94141384E067E05A
:1001300040E02EE100E00F2EF7E0EF2EF02DCC2472
:100140000E94F71288E060E040E120E00E945F0D2D
:1001500089E060E040E120E00E945F0D8AE060E01D
:1001600044E120E00E945F0D8BE060E044E120E08C
:100170000E945F0D8CE060E04EE120E00E945F0D88
:100180008DE060E044E120E00E945F0D8EE060E0E1
:100190004EE120E00E945F0D8FE060E04EE120E044
:1001A0000E945F0D80E163E140E020E200E00F2E5D
:1001B000F7E0EF2EF02DCC240E94141384E167E1C8
:1001C00040E02EE100E00F2EF7E0EF2EF02DCC24E2
:1001D0000E94F71288E160E040E120E00E945F0D9C
:1001E00089E160E040E120E00E945F0D8AE160E08B
:1001F00044E120E00E945F0D8BE160E044E120E0FB
:100200000E945F0D8CE160E044E120E00E945F0D00
:100210008DE160E044E120E00E945F0D8EE160E04E
:1002200044E120E00E945F0D8FE160E044E120E0C6
:100230000E945F0D80E263E240E020E200E00F2ECA
:10024000F7E0EF2EF02DCC240E94141384E267E235
:1002500040E02CE100E00F2EF7E0EF2EF02DCC2453
:100260000E94F71288E260E040E120E00E945F0D0A
:1002700089E260E040E120E00E945F0D8AE260E0F8
:1002800044E120E00E945F0D8BE260E044E120E069
:100290000E945F0D8CE260E044E120E00E945F0D6F
:1002A0008DE260E044E120E00E945F0D8EE260E0BC
:1002B00044E120E00E945F0D8FE260E044E120E035
:1002C0000E945F0D80E363E340E020E200E00F2E38
:1002D000F7E0EF2EF02DCC240E94141384E367E3A3
:1002E00040E02CE100E00F2EF7E0EF2EF02DCC24C3
:1002F0000E94F71288E360E040E120E00E945F0D79
:1003000089E360E040E120E00E945F0D8AE360E065
:1003100044E120E00E945F0D8BE360E044E120E0D7
:100320000E945F0D8CE360E044E120E00E945F0DDD
:100330008DE360E044E120E00E945F0D8EE360E029
:1003400044E120E00E945F0D8FE360E044E120E0A3
:100350000E945F0D0E94970E0E940D02109252049F
:10036000109251040E948B0778940E94B90701C033
:100370000000809176018823D9F310927601809154
:10038000740190917501909347048093460486E42C
:1003900090E0FC018081882F90E090934904809345
:1003A00048048091480490914904909349048093B3
:1003B000480480917401909175010E94EB0D9A831D
:1003C0008983809174019091750190934104809389
:1003D000400486E490E0FC018081882F90E09093B7
:1003E0003F0480933E0480913E0490913F0490939B
:1003F0003F0480933E0489819A81807091709C8330
:100400008B8389819A810E9407088B819C81009748
:1004100009F0B5CF0E94B907ACCFDF93CF93CDB72A
:10042000DEB784E080934B0484E180934E0485E042
:1004300080934F0410924D0484E180934C041092F9
:100440004A048AE080935004CF91DF910895DF93AE
:10045000CF93CDB7DEB780E28093330180E2809303
:10046000340180E28093350180E28093360188E296
:100470008093370180E28093380180E280933901D4
:1004800082E280933A0189E180933B0189E1809384
:100490003C0180E280933D0180E280933E0180E256
:1004A00080933F0180E28093400180E2809341018C
:1004B00080E28093420180E28093430180E2809356
:1004C000440180E28093450180E28093460182E20C
:1004D0008093470180E28093480180E28093490144
:1004E00082E280934A0189E180934B0189E1809304
:1004F0004C0180E280934D0180E280934E0180E2C6
:1005000080934F0180E28093500180E280935101FB
:1005100080E28093520180E28093530180E28093D5
:10052000540180E28093550180E28093560182E27B
:100530008093570180E28093580180E280935901B3
:1005400082E280935A0189E180935B0189E1809383
:100550005C0180E280935D0180E280935E0180E235
:1005600080935F0180E28093600180E2809361016B
:1005700080E28093620180E28093630180E2809355
:10058000640180E28093650180E28093660182E2EB
:100590008093670180E28093680180E28093690123
:1005A00088E280936A0189E180936B0189E18093FD
:1005B0006C0180E280936D0180E280936E0180E2A5
:1005C00080936F0180E28093700180E280937101DB
:1005D00080E280937201CF91DF910895DF93CF93F2
:1005E000CDB7DEB787E490E02091000130910101A2
:1005F000220F220F220FFC0120838EE690E022E0E2
:10060000FC01208385E490E025E0FC01208384E464
:1006100090E022E0FC012083CF91DF910895DF93E9
:10062000CF93CDB7DEB700E80093610000E0009300
:10063000610000E80093550000E8009355000000B9
:10064000000085E590E025E530E0F901208120619A
:10065000FC012083CF91DF9108951F920F920FB676
:100660000F9211242F933F938F939F93DF93CF93F8
:10067000CDB7DEB781E0809376012091740130918F
:1006800075018091000190910101820F931F909359
:10069000750180937401CF91DF919F918F913F916C
:1006A0002F910F900FBE0F901F901895DF93CF934F
:1006B000CDB7DEB784E290E024E230E0F90120819A
:1006C000206BFC01208384E290E024E230E0F90119
:1006D00020812F7BFC01208385E290E025E230E041
:1006E000F90120812F74FC01208385E290E025E24E
:1006F00030E0F90120812064FC0120838CE490E04B
:1007000020E5FC0120838DE490E02DE430E0F90148
:1007100020812160FC012083CF91DF910895DF9338
:10072000CF9300D0CDB7DEB78A838EE490E02A81E4
:10073000FC01208300008DE490E0FC01808188238F
:10074000D4F78EE490E0FC0180818983F8ECFA957F
:10075000F1F789810F900F90CF91DF910895DF938A
:10076000CF9300D00F92CDB7DEB71A82198210C096
:1007700089819A81865D9C4FFC0180810E948F0354
:100780000E940F058B8389819A8101969A838983C0
:10079000809134049091350429813A81821793071E
:1007A00038F706C080E00E948F030E940F058B83FC
:1007B0008B818823B9F70F900F900F90CF91DF9125
:1007C00008957F939F9372B1982F9095792372B972
:1007D00078B1962F9095792378B9982F71B1792BAC
:1007E00071B977B1962F792B77B9942F90957BB10A
:1007F00079237BB97AB1942F792B7AB92B98239AE4
:100800009F917F9108957F939F9377B1709367072E
:100810007093710771B170936A0770936B07782FAB
:10082000709590917107972390937107762F70952B
:1008300090916B07972390936B07882770916B07B4
:1008400071B99F917F91089547B989B9E1B821B9EC
:1008500007B989B908952B9A08952B9870916A0762
:1008600071B90895DF93CF93CDB7DEB78BE1809355
:100870002A0384E090E0909335048093340410922E
:100880001F0210921E02CF91DF910895DF93CF9344
:100890000F92CDB7DEB789838091340490913504EF
:1008A0009C01265D3C4F4981F9014083019690935C
:1008B0003504809334040F90CF91DF910895DF9336
:1008C000CF9300D0CDB7DEB79A838983809134046B
:1008D0009091350429813A81232F3327422F9C019F
:1008E000265D3C4FF9014083019690933504809337
:1008F0003404809134049091350449819C01265D33
:100900003C4FF90140830196909335048093340461
:100910000F900F90CF91DF910895DF93CF93CDB7D4
:10092000DEB780911E0290911F029C01205E3D4F18
:10093000F9012081019690931F0280931E02822F5D
:10094000CF91DF910895DF93CF9300D00F92CDB771
:10095000DEB71B82809177018F5F8F708093770164
:100960008091340490913504892F992780932B032B
:10097000809134049091350480932C038091780108
:10098000982F9295907F80917701890F80932D0306
:1009900081E090E09A8389830EC089819A81865D87
:1009A0009C4FFC0180819B8189278B8389819A815F
:1009B00001969A838983809134049091350429812A
:1009C0003A812817390748F380913404909135040F
:1009D000865D9C4F2B81FC0120830E94910C84E05A
:1009E00090E090933504809334040F900F900F9013
:1009F000CF91DF910895DF93CF93CDB7DEB780918C
:100A000020028B3111F080E007C084E090E09093E9
:100A10001F0280931E0281E0CF91DF910895DF9342
:100A2000CF9300D000D00F92CDB7DEB78D838091E9
:100A30007901882F90E081309105B1F082309105E5
:100A40001CF4009749F08EC082309105E1F08330AC
:100A5000910509F442C086C08D818B3119F481E083
:100A6000898381C019827FC08D81809321028D810D
:100A7000882F90E0982F882790937B0180937A01AC
:100A800082E0898370C08D81809322028D81282F1E
:100A900030E080917A0190917B01822B932B90938F
:100AA0007B0180937A0180917A0190917B0184305F
:100AB000910540F080917A0190917B0121E08F3087
:100AC000920710F019824FC083E090E090937D016F
:100AD00080937C0183E0898346C080917C01909162
:100AE0007D01805E9D4F2D81FC01208320917C0142
:100AF00030917D0180917A0190917B01281739070F
:100B000029F51A8281E090E09C838B830EC08B8153
:100B10009C81805E9D4FFC0180819A8189278A8318
:100B20008B819C8101969C838B8380917A0190912B
:100B30007B012B813C818217930748F78A818823A8
:100B400019F48BE18093200219820DC083E0898320
:100B500080917C0190917D01019690937D0180931D
:100B60007C0101C01982898180937901809179018A
:100B70000F900F900F900F900F90CF91DF910895ED
:100B8000DF93CF9300D0CDB7DEB780E090E00E9436
:100B90006207882F90E09A83898381E090E00E9429
:100BA0006207882F90E0982F882729813A81822B2D
:100BB000932B9A83898389819A810F900F90CF918B
:100BC000DF910895DF93CF9300D0CDB7DEB79A833E
:100BD0008983298180E090E0622F0E943807898113
:100BE0009A81892F9927282F81E090E0622F0E9417
:100BF00038070F900F90CF91DF910895DF93CF9337
:100C0000CDB7DEB720914A0482E090E0622F0E94C7
:100C1000380720914B0483E090E0622F0E94380750
:100C200020914C0484E090E0622F0E9438072091CC
:100C30004D0485E090E0622F0E94380720914E0419
:100C400086E090E0622F0E94380720914F0487E0F1
:100C500090E0622F0E9438072091500488E090E0D5
:100C6000622F0E943807CF91DF910895DF93CF93D1
:100C70000F92CDB7DEB719822FC08981882F90E0FF
:100C8000880F991F09962981222F30E0220F331FE8
:100C9000220F331F220F331F26593A4FF9012081AB
:100CA000622F0E9438078981882F90E00596880F6F
:100CB000991F2981222F30E0220F331F220F331F6B
:100CC000220F331F25593A4FF9012081622F0E94CC
:100CD000380789818F5F898380916605998198178C
:100CE00060F20F90CF91DF910895DF93CF9300D002
:100CF0000F92CDB7DEB780916605882F90E0880F00
:100D0000991F09969B838A83198214C08981282F91
:100D100030E08A819B81820F931F2981222F30E04E
:100D20002D5C3E4FF9012081622F0E943807898196
:100D30008F5F89838981803448F30F900F900F90E3
:100D4000CF91DF9108950F931F93DF93CF9300D03E
:100D50000F92CDB7DEB782E090E00E9462078093E9
:100D60004A0483E090E00E94620780934B0484E091
:100D700090E00E94620780934C0485E090E00E941E
:100D8000620780934D0486E090E00E9462078093A2
:100D90004E0487E090E00E94620780934F0488E051
:100DA00090E00E94620780935004198231C08981CB
:100DB000082F10E08981882F90E0880F991F0996ED
:100DC0000E946207282FC801880F991F880F991F5A
:100DD000880F991F86599A4FFC0120838981082F1B
:100DE00010E08981882F90E00596880F991F0E9456
:100DF0006207282FC801880F991F880F991F880F35
:100E0000991F85599A4FFC01208389818F5F8983BF
:100E1000809166059981981750F280916605882F18
:100E200090E0880F991F09969B838A83198215C0C9
:100E30008981082F10E08981282F30E08A819B81E9
:100E4000820F931F0E946207282FC8018D5C9E4F5E
:100E5000FC01208389818F5F89838981803440F3FD
:100E60000F900F900F90CF91DF911F910F910895E8
:100E7000DF93CF9300D00F92CDB7DEB79A838983EB
:100E80006B8300008FE390E0FC018081882F90E06D
:100E9000827090700097B1F781E490E02981FC01A5
:100EA000208380E490E02B81FC0120838F9384E0F9
:100EB0008FBB82E08FBB8F910F900F900F90CF91DF
:100EC000DF910895DF93CF9300D0CDB7DEB79A833B
:100ED000898300008FE390E0FC018081882F90E0FF
:100EE000827090700097B1F781E490E02981FC0155
:100EF00020838FE390E02FE330E0F901208121602F
:100F0000FC01208380E490E0FC0180810F900F9031
:100F1000CF91DF910895DF93CF9300D0CDB7DEB7A7
:100F20000E94DA0B86E394E00E94510D0E94320485
:100F30000E94C0059A83898320913A0430913B0432
:100F400089819A812817390719F40E94A3060CC0D9
:100F500080913A0490913B040E94E2050E94FE05B4
:100F60000E9436060E9475060F900F90CF91DF9178
:100F70000895DF93CF9300D000D0CDB7DEB71A82AB
:100F800019821B820E94FB048823C9F10E948D04F0
:100F90008C838C81882F90E082319105B9F0833168
:100FA00091053CF48031910511F18131910559F0A1
:100FB0001FC08431910599F0843191056CF0853121
:100FC000910581F015C00E94E20812C00E940A0932
:100FD0000E948D048B830CC00E94470909C00E94A7
:100FE0008D0906C089819A810E94AF0901C0000065
:100FF0001092200210921F0210921E0201C00000E7
:101000000F900F900F900F90CF91DF910895DF9385
:10101000CF9300D0CDB7DEB79A83898380917801D2
:101020008F5F8F708093780189819A818270907030
:10103000009731F489819A8184709070009749F00B
:1010400080918601909187018064909387018093BD
:10105000860189819A8188709070009749F080910B
:10106000860190918701806190938701809386012A
:1010700020918401309185018091800190918101BE
:10108000282B392B40918601509187018091820154
:101090009091830184239523822B932B90937F013E
:1010A00080937E0180917E0190917F01817090708C
:1010B000882311F00E94E80980917E0190917F01C0
:1010C00082709070009711F00E941A0A80917E0140
:1010D00090917F0184709070009711F00E944F0AE8
:1010E00080917E0190917F0188709070009711F03F
:1010F0000E94A50A80917E0190917F01807190707D
:10110000009711F00E94D50A80917E0190917F0195
:1011100080749070009711F00E94320B80917E01D4
:1011200090917F0180729070009711F00E94090BDE
:1011300080917E0190917F01009711F40E94DC095B
:10114000109281011092800180917E0190917F0127
:101150009C01209530958091860190918701822392
:10116000932390938701809386010F900F90CF91E6
:10117000DF910895DF93CF9300D000D000D0CDB79A
:10118000DEB79A8389837C836B835E834D838981F9
:101190009A8190938101809380018B819C819093AF
:1011A0008301809382018D819E819093850180933C
:1011B000840126960FB6F894DEBF0FBECDBFCF9147
:1011C000DF910895DF93CF9300D00F92CDB7DEB7B4
:1011D0000E948D040E948D0489830E948D040E94C8
:1011E0008D048A830E948D040E948D048B838981E3
:1011F000882F90E02A81422F50E02B81222F30E06F
:10120000BA01A9010E94BA080F900F900F90CF91D8
:10121000DF910895DF93CF93CDB7DEB70E948D04A1
:1012200080934A040E948D0480934B040E948D0495
:1012300080934C040E948D0480934D040E948D0481
:1012400080934E040E948D0480934F040E948D046D
:10125000809350040E948D04882F90E0982F882757
:1012600090930101809300010E948D04282F30E0AB
:101270008091000190910101822B932B90930101A9
:10128000809300010E94FE05CF91DF9108950F9396
:101290001F93DF93CF9300D0CDB7DEB70E948D04AC
:1012A00089838981082F10E00E948D04282FC801AE
:1012B000880F991F880F991F880F991F86599A4F79
:1012C000FC0120830E948D048A838981882F90E00D
:1012D0002981222F30E0220F331F220F331F220FCC
:1012E000331F25593A4FF9012081322F347C2A814E
:1012F0002B73232B880F991F880F991F880F991F15
:1013000085599A4FFC0120830E9436060F900F905A
:10131000CF91DF911F910F9108950F931F93DF934A
:10132000CF930F92CDB7DEB719820EC08981082FF7
:1013300010E00E948D04282FC8018D5C9E4FFC0197
:10134000208389818F5F89838981803478F30E942B
:1013500075060F90CF91DF911F910F910895DF9344
:10136000CF9300D000D0CDB7DEB79C838B83809124
:101370002102882F90E09A83898311C08B819C8100
:10138000FC0120818B819C8101969C838B83822F21
:101390000E94460489819A8101979A838983898171
:1013A0009A81009759F70E94A3040F900F900F9015
:1013B0000F90CF91DF910895DF93CF93CDB7DEB734
:1013C00080E20E9446040E94A304CF91DF91089519
:1013D000DF93CF93CDB7DEB781E20E94460483E06E
:1013E00090EF0E945F0485E00E94460481E00E9425
:1013F000460482E00E9446048091360490913704AE
:101400000E94460480913A0490913B040E945F043C
:1014100080E090E00E945F0480E40E944604809196
:101420007E0190917F010E945F040E94A304CF91EE
:10143000DF910895DF93CF93CDB7DEB782E20E94AC
:10144000460480914A040E94460480914B040E9405
:10145000460480914C040E94460480914D040E94F1
:10146000460480914E040E94460480914F040E94DD
:101470004604809150040E9446048091000190919E
:1014800001010E945F0484EF91E00E945F0480E00C
:101490000E9446040E94A304CF91DF910895DF9338
:1014A000CF930F92CDB7DEB783E20E94460481E06E
:1014B0000E94460419823FC08981882F90E0880FDE
:1014C000991F880F991F880F991F86599A4FFC0101
:1014D00080810E9446048981882F90E0880F991F9F
:1014E000880F991F880F991F85599A4FFC01808199
:1014F0000E9446048981882F90E0880F991F880FE9
:10150000991F880F991F84599A4FFC0180810E946E
:1015100046048981882F90E0880F991F880F991FB2
:10152000880F991F83599A4FFC0180810E944604BD
:1015300089818F5F89838981803408F4BDCF0E94BF
:10154000A3040F90CF91DF910895DF93CF930F9273
:10155000CDB7DEB784E20E94460419821DC089819E
:10156000882F90E0880F991F8D5A9B4FFC01808136
:101570009181892F99270E9446048981882F90E0C4
:10158000880F991F8D5A9B4FFC01808191810E9489
:10159000460489818F5F89838981803400F30E94AA
:1015A000A3040F90CF91DF910895DF93CF930F9213
:1015B000CDB7DEB785E20E944604198221C0898139
:1015C000882F90E0805C9F4F880F991F8D5A9B4F0A
:1015D000FC0180819181892F99270E94460489818D
:1015E000882F90E0805C9F4F880F991F8D5A9B4FEA
:1015F000FC01808191810E94460489818F5F8983EB
:1016000089818034E0F20E94A3040F90CF91DF9192
:101610000895DF93CF9300D00F92CDB7DEB786E267
:101620000E944604198211C089810E94870D9B8304
:101630008A838A819B81892F99270E9446048A8107
:101640000E94460489818F5F898380916605998114
:10165000981750F30E94A3040F900F900F90CF9112
:10166000DF910895DF93CF930F92CDB7DEB787E276
:101670000E94460480E40E94460488E00E944604DA
:1016800019820CC08981882F90E08D5A9A4FFC01F5
:1016900080810E94460489818F5F89838981883097
:1016A00088F319820CC08981882F90E0855A9A4F5F
:1016B000FC0180810E94460489818F5F8983898132
:1016C000883088F30E94A3040F90CF91DF91089592
:1016D000DF93CF930F92CDB7DEB719820CC089810B
:1016E000882F90E08D5C9E4FFC01808199819F5FE7
:1016F00099830E9446048981803488F30E94A30460
:101700000F90CF91DF910895DF93CF93CDB7DEB7E0
:1017100080913C0490913D040E945F0480914404B8
:10172000909145040E945F04809146049091470483
:101730000E945F0480914804909149040E945F04D4
:1017400080914004909141040E945F0480913E0486
:1017500090913F040E945F040E94A304CF91DF9107
:101760000895DF93CF9300D000D0CDB7DEB79A8332
:1017700089837C836B8311C089819A81FC012081DC
:1017800089819A8101969A838983822F0E944604D7
:101790008B819C8101979C838B838B819C8100979B
:1017A00059F70E94A3040F900F900F900F90CF91C4
:1017B000DF910895DF93CF93CDB7DEB784E290E059
:1017C00024E230E0F90120812061FC01208384E2E1
:1017D00090E024E230E0F90120812062FC012083C6
:1017E00084E290E024E230E0F90120812068FC01ED
:1017F000208384E290E024E230E0F90120812F7B15
:10180000FC01208385E290E025E230E0F9012081AF
:101810002F7EFC01208385E290E025E230E0F90193
:1018200020812F7DFC01208385E290E025E230E0DD
:10183000F90120812F77FC01208385E290E025E2E9
:1018400030E0F90120812064FC012083CF91DF91F9
:101850000895DF93CF9300D00F92CDB7DEB78B837F
:101860001A82198245C08B81882354F485E290E066
:1018700025E230E0F90120812062FC01208309C0CB
:1018800085E290E025E230E0F90120812F7DFC0126
:1018900020838B81880F8B83F2E0FA95F1F700C0EB
:1018A00085E290E025E230E0F90120812068FC012A
:1018B0002083F2E0FA95F1F700C083E290E0FC01AA
:1018C00080818295869586958370982F91708B8103
:1018D000892B8B8385E290E025E230E0F9012081BD
:1018E0002F77FC01208389819A8101969A838983CD
:1018F00089819A818830910508F4B5CF85E290E01E
:1019000025E230E0F90120812F7DFC012083F8ECF5
:10191000FA95F1F78B810F900F900F90CF91DF9197
:101920000895DF93CF9300D00F92CDB7DEB71A8220
:10193000198210C089819A81865D9C4FFC0180814B
:101940000E94290C0E940F058B8389819A81019640
:101950009A838983809134049091350429813A8156
:101960008217930738F706C080E00E94290C0E9476
:101970000F058B838B818823B9F70F900F900F9001
:10198000CF91DF910895A0E0B0E0E9ECFCE00C9489
:10199000C615182FC62EF894809164008E7F809310
:1019A0006400E12FE695E695E695F0E0EE0FFF1F67
:1019B000EE5DFE4F808180937C00809164008160A9
:1019C000809364006181862F0E940304D82EC12F6A
:1019D000D0E0FE01ED5CFE4FF08010E0BB24B3943C
:1019E00020C0F8948C2D6D2D4091710720916B07CC
:1019F00000916707E0906A070E9424048FB79091D6
:101A00006807892B8FBF809132018F5F80933201ED
:101A1000823030F0823021F0833011F0B092320108
:101A20001F5F1F15F0F2F8940E942B04109285009E
:101A300010928400B59A00B605FE18C08FB7909139
:101A40006807892B8FBF07C0809184009091850023
:101A50008050904290F4B59BF7CF80918600909192
:101A60008700CC0FDD1FCD5ADB4F0DC0CC0FDD1F23
:101A7000CD5ADB4F81E090E006C0CC0FDD1FCD5A80
:101A8000DB4F80E090E2998388830E942D048FB71A
:101A900090916807892B8FBFCDB7DEB7E9E00C9432
:101AA000E215FC0181E096E49183808388E091E077
:101AB0009383828380E494E09583848308950F93D5
:101AC0001F9390916605E92FF0E007E615E053E0DB
:101AD000EE0FFF1F5A95E1F7D801AE0FBF1F139607
:101AE0004C9313970E0F1F1F677015968C931597C5
:101AF00016968C932370660F660F660F262BF801DF
:101B000024839F5F909366051F910F910895EF9234
:101B1000FF921F93CF93DF93282FE82EFF24F70126
:101B2000A3E0EE0FFF1FAA95E1F7E959FA4F65818F
:101B3000838190E000904A0402C0959587950A94AD
:101B4000E2F7182F843008F414E080916605281716
:101B500018F020E030E038C0E70173E0CC0FDD1F63
:101B60007A95E1F7C559DA4F9881892F807C29F55C
:101B7000862F0E94E60E9C01412F50E01695169587
:101B8000812F90E0841B950B821793071CF48881AA
:101B90008B7F888388279927841B950B821793074F
:101BA0009CF0F70163E0EE0FFF1F6A95E1F7E5593E
:101BB000FA4F80818460808307C09B7F9883822F47
:101BC000412F0E946D159C01C901DF91CF911F919A
:101BD000FF90EF900895FF920F931F93CF93DF93A1
:101BE000109264051092630520918A0130918B0157
:101BF00090938B0180938A0140918C0150918D01CB
:101C0000421B530B480F591FFF2403C0F394485C39
:101C10005040483C5105D0F750938D0140938C01C2
:101C200080916505882341F08F1518F410926505A1
:101C300003C08F19809365050E943212E091510410
:101C4000F0915204309709F0099510E000E006C0C9
:101C5000812F6F2D0E94FC0E082B1F5F609166057F
:101C60001617B0F3002349F0809163059091640545
:101C700091609093640580936305E3E5F5E011922C
:101C800085E0EB35F807D9F7A7E6B5E030E041E0AD
:101C900050E017C08C91887191F0E32FE695E6959E
:101CA000E695F0E0ED5AFA4F832F8770EA0102C003
:101CB000CC0FDD1F8A95E2F720812C2B20833F5F1C
:101CC0001896361738F38091630590916405CDB767
:101CD000DEB7E5E00C94E6151092660510927207E7
:101CE00084E080934B0494E190934E0485E08093CC
:101CF0004F0410924D0490934C0481E080934A0469
:101D000083E0809350040E94C611109252041092F6
:101D1000510408951F9310E004C0812F0E94D30E38
:101D20001F5F809166051817C0F31F9108951F93D8
:101D300010E004C0812F0E94D30E1F5F80916605C2
:101D40001817C0F310928B0110928A010E9495120D
:101D50001F910895E82FF0E093E0EE0FFF1F9A9592
:101D6000E1F7DF01A959BA4F15962C9115971696F0
:101D70003C91169782E08C93809163059091640565
:101D800082609093640580936305E759FA4F10824F
:101D900080E806C0E22FF0E0E257FE4F80832F5F1D
:101DA0003217C0F708951F93182F0E94AA0EE12F33
:101DB000F0E023E0EE0FFF1F2A95E1F7E959FA4F13
:101DC00081E080838FE081831F91089590E0FC0182
:101DD000E05CFF4FA3E5B4E0EE0FFF1FEA0FFB1F2F
:101DE000880F991FA80FB91F208131818D919C9177
:101DF000281B390BC9010895A0E0B0E0E2E0FFE044
:101E00000C94C115782EE62E0E94870D5C01C72D1B
:101E1000D0E0FE0173E0EE0FFF1F7A95E1F7E55980
:101E2000FA4F5081FE0163E0EE0FFF1F6A95E1F764
:101E3000E959FA4F4381242F30E0852F837090E0D9
:101E4000019602C0359527958A95E2F7822F2230B8
:101E500008F482E0242F30E0B901681B7109FE010B
:101E600043E0EE0FFF1F4A95E1F7DF01A959BA4F92
:101E70008C91843009F4EDC0853030F4813071F0FC
:101E8000823009F07CC25AC0803109F499C1803295
:101E900009F449C2883009F072C206C22091630574
:101EA00030916405326015966C91159716967C9169
:101EB00016978F01AD014F5F5F4F2AC0DA018C91F9
:101EC000A62FB0E08A3060F0AA0FBB1FFD01ED5ACB
:101ED000FB4F80819181AD52BB4F8D939C9316C077
:101EE000AA0FBB1FED01CD52DB4F88819981AD5AFE
:101EF000BB4FED91FC91E817F90710F4019704C06E
:101F00008E179F0720F401969983888328606F5F5E
:101F10007617A0F63093640520936305F801E9591C
:101F2000FA4F818181508183882319F4872D0E9483
:101F3000AA0E80914C04809365051FC252FF0AC00F
:101F40001596EC911597F0E0E257FE4F108280E273
:101F50008C9304C2C501B7FE02C080E090E08217F6
:101F6000930770F063E0CC0FDD1F6A95E1F7FE0187
:101F7000E959FA4F84E08083C759DA4F1882F4C1D7
:101F8000EE2009F4FCC180916505882309F0F7C1B2
:101F9000FE0143E0EE0FFF1F4A95E1F7E959FA4FC2
:101FA0001581D680F0904F04B0E8FB0E00E88091D8
:101FB0004E04081B609163057091640530E8C32EE0
:101FC00040C0412F50E0EA01CC0FDD1FCD52DB4F66
:101FD00028813981FA01EE0FFF1FED5AFB4F019066
:101FE000F081E02D2E173F0760F4FA01E257FE4F13
:101FF00080818E0D80838F1518F1C0822F5F3F4F37
:102000000EC0DA01A257BE4FE217F30760F48C91BD
:102010008E198C930817A0F0CC9221503040398350
:10202000288368600DC09C91913810F091509C936A
:10203000FA01E257FE4F808187FD02C08F5F8083E7
:102040001F5FD11608F0BDCF7093640560936305E0
:1020500096C1C501B7FE02C080E090E082179307E9
:1020600008F471C180914C0480936505DE0183E022
:10207000AA0FBB1F8A95E1F7A759BA4F8C918F5FC2
:102080008C93FE0113E0EE0FFF1F1A95E1F7E5595F
:10209000FA4F808190E088739070F3E09695879571
:1020A000FA95E1F7682E882309F44EC0DD24CC248C
:1020B0007E01E3E0EE0CFF1CEA95E1F7EAE6F5E0CD
:1020C000EE0EFF1E4D013AC0D714B9F10D2D10E0F0
:1020D000F80173E0EE0FFF1F7A95E1F7E559FA4F2B
:1020E000808190E08873907063E0969587956A95FB
:1020F000E1F7681611F58D2D0E94870DF80153E068
:10210000EE0FFF1F5A95E1F7E959FA4F2381821B21
:102110009109D7012C91A501421B51094817590774
:102120001CF4D4011C9207C0E081E03111F0E830CA
:1021300021F4F4011082CC24C394D39480916605D9
:10214000D81610F2CC2079F480914B04882359F0F2
:1021500080916305909164059860909364058093E5
:10216000630511E001C010E0FE0143E0EE0FFF1F28
:102170004A95E1F7E759FA4F908180914B049817FF
:1021800008F4FEC08091630590916405836090938C
:1021900064058093630533E0CC0FDD1F3A95E1F7CA
:1021A000FE01E959FA4F80E180831182C559DA4F67
:1021B0008881807C09F4E4C0872D0E947F14E0C0F0
:1021C00052FF10C01596EC911597F0E0E257FE4FC4
:1021D00080E8808380E28C93809163059091640510
:1021E000906158C0C501B7FE02C080E090E0409108
:1021F0006305509164058617970778F493E0CC0F38
:10220000DD1F9A95E1F7C959DA4F88E08883546059
:10221000509364054093630541C041605093640549
:1022200040936305FE0183E0EE0FFF1F8A95E1F7FF
:10223000E759FA4F908180914B04981710F49F5FF3
:102240009083FE0113E0EE0FFF1F1A95E1F7E559A9
:10225000FA4F8081807C19F0872D0E94A5149091FF
:102260004D04992369F0FE01B3E0EE0FFF1FBA950C
:10227000E1F7E959FA4F8181891720F48E0D8183A6
:1022800010E00DC0872D0E94D30E809163059091C0
:1022900064059260909364058093630511E08091DA
:1022A0004C04809365056CC080914C048093650557
:1022B000FE01A3E0EE0FFF1FAA95E1F7E759FA4FE1
:1022C0008081882309F43FC0C501B7FE02C080E0C9
:1022D00090E040916305509164056817790788F490
:1022E000FE0163E0EE0FFF1F6A95E1F7E959FA4F2F
:1022F00080E180834160509364054093630510E062
:1023000006C05460509364054093630511E0FE01DC
:1023100053E0EE0FFF1F5A95E1F7E759FA4F80811E
:10232000815080832DC01596EC911597F0E0E2570F
:10233000FE4F90819F5F908352FD09C097FF03C0BD
:1023400080E18C931CC0872D0E94AA0E18C080913A
:102350005004981748F0872D0E94D30E8091630592
:1023600090916405906105C080916305909164052A
:102370009460909364058093630511E001C010E0C0
:10238000812FCDB7DEB7EEE00C94DD15E3E3F1E08D
:1023900080E4819391E0E337F907D9F70895FF923C
:1023A0000F931F93CF93DF93EC0100E020C0802FA9
:1023B00090E023E0880F991F2A95E1F7FC01E55989
:1023C000FA4F2081207CFC0131F4E959FA4F8581D4
:1023D000FE0109950BC0E959FA4FF680158104C03A
:1023E000812FFE0109951F5FF116D0F70F5F8091D5
:1023F00066050817E0F2CDB7DEB7E5E00C94E61508
:10240000E82FE695E695E695F0E0EE0FFF1FEE5D0E
:10241000FE4F21E030E0008002C0220F331F0A94FB
:10242000E2F740916C07422B40936C0740916D0797
:10243000242B20936D07877090E0A2E0B1E0880F15
:10244000991F880F991FFD01E80FF91FE381F0E044
:10245000E459F84FA80FB91F808112969C91892BDF
:1024600080830895A0E0B0E0E8E3F2E10C94C415A5
:102470008FB7807880936807EBE7F0E0A08090B694
:10248000A0E8B0E0BC9021E830E0E901F880E6B2D5
:102490000091840010918500D0906400C0907C0071
:1024A00080E4808384E080BF1C9281E88883F89474
:1024B00086E792E10E94CF11A0927B0090BEB0927D
:1024C0008000F0928100E6BA1093850000938400AA
:1024D000D0926400C0927C008FB790916807892BDE
:1024E0008FBFCDB7DEB7EBE00C94E015982F877067
:1024F000A82FB0E0FD01EE0FFF1FEE0FFF1FEE5FF4
:10250000FE4F0190F081E02D309749F0AA0FBB1FDC
:10251000AA0FBB1FAC5FBE4F892F6C9109958FB777
:1025200090916807892B8FBF08950F9381E0809366
:10253000320110926C0710926D0710926E07109284
:102540006F071092700780E092E10E94CF11809196
:102550006D0760916C0740916E0720916F070091A5
:1025600070070E94E1030F910895AF92CF92EF920E
:102570000F939C2DE0916605F0E073E0EE0FFF1FD6
:102580007A95E1F7DF01A959BA4F13962C93139767
:10259000E559FA4F2091720717962C9317974770B9
:1025A00015968C93159716966C930370440F440FF1
:1025B000440F042B0083E22FF0E09770E294EE0CBE
:1025C00030EEE3229E2983E0EE0FFF1F8A95E1F7AC
:1025D000E253FE4F9083AA2011F0986090832F5F02
:1025E000209372070F91EF90CF90AF900895AF9224
:1025F000CF92EF920F93AA240E94B5129091660594
:10260000E92FF0E0A3E0EE0FFF1FAA95E1F7E559EF
:10261000FA4F8081806880839F5F909366050F9159
:10262000EF90CF90AF900895AF92CF92EF920F932B
:10263000AA24A3940E94B51290916605E92FF0E0B8
:10264000B3E0EE0FFF1FBA95E1F7E559FA4F80812D
:10265000806480839F5F909366050F91EF90CF9089
:10266000AF9008956115710511F14F5F03C041509E
:10267000880F991F97FD06C04423C9F703C04F5F19
:10268000660F771F77FFFBCF20E030E00CC0220FF2
:10269000331F8617970720F0861B970B2F5F3F4F3E
:1026A000415076956795442321F037FFF0CF2FEF07
:1026B0003FEFC9010895FB0123813481B6E03695CF
:1026C0002795BA95E1F7821B930B9C01808183FFCC
:1026D0000CC0213831051CF02050314006C08FEF6E
:1026E0002038380714F420503F4FC9010895A0E066
:1026F000B0E0EDE7F3E10C94C715E82FF0E073E0EC
:10270000EE0FFF1F7A95E1F7E959FA4FA781B0E084
:1027100063E0AA0FBB1F6A95E1F7A253BE4FEC908E
:1027200058E0C52EEC2006818581D02ED81AFD2CCC
:10273000F394182FC82FD0E01AC0812F0E94E60E04
:10274000E12FF0E0181619064CF4EC1BFD0BEE0F10
:10275000FF1FE25FFD4F9183808308C0EC1BFD0BE0
:10276000EE0FFF1FE25FFD4F118210821F5F011706
:1027700020F710910E0200910F02E0E1F2E0812FAC
:10278000902F9C01D90121E070E00BC080819181E4
:10279000A817B90710F0CD0101C0722F2F5F329634
:1027A000DC012F1598F37723B9F4EE2021F460E0D3
:1027B00040E050E01AC0EF2DF0E0EE0FFF1FE45FA5
:1027C000FD4F408151818091100290911102841738
:1027D000950750F461E009C0E72FF0E0EE0FFF1F0E
:1027E000E45FFD4F4081518160E07D1549F4EE20AA
:1027F00019F420E030E00CC0812F902F9C0108C01C
:10280000E72FF0E0EE0FFF1FE05FFD4F20813181E9
:10281000662341F0C0E0D0E06E018F2D880F880F55
:10282000D82E06C0C0E0D0E06E01770F770FD72E0C
:10283000E601C0E04217530770F0CD01821B930BF5
:10284000BC01621B730B640F751F4AE00E943213B8
:10285000805094400BC0B901641B750BA41BB50BD1
:10286000CB016A0F7B1F4AE00E9432139C012C0FA0
:102870003D1F52E0D52EDF1478F4EE2021F0C9017F
:102880006F2D70E005C06F2D70E061507040C90180
:1028900040E00E9432139C01C90180709C7F892B0B
:1028A00011F02FEF33E0EE2029F03695279536957D
:1028B00027951FC02636310518F460E070E003C08C
:1028C000B9016656704080E090E028E33FE940E0BF
:1028D00050E00E949E1521E1969587957795679522
:1028E0002A95D1F79B016F3F710519F010F02FEF7A
:1028F00030E0C901CDB7DEB7E8E00C94E3151F93D3
:10290000E82FF0E013E0EE0FFF1F1A95E1F7E95909
:10291000FA4F17810E947713E12FF0E0B3E0EE0F3A
:10292000FF1FBA95E1F7E253FE4F20812770928393
:102930008183268325831782A6E0880F991FAA9595
:10294000E1F7948383831F910895A0E0B0E0EBEA60
:10295000F4E10C94C815E82FF0E0A3E0EE0FFF1FA0
:10296000AA95E1F7E959FA4FD7800E9477137C01C5
:10297000CD2DD0E0E3E0CC0FDD1FEA95E1F7C253A7
:10298000DE4FBE010E945B13AC0197FF03C0509560
:1029900041955F4F20E030E0E0E4F0E0CF01022E0F
:1029A00002C0969587950A94E2F78417950750F42C
:1029B0008F81281710F4815003C0863040F48F5F58
:1029C0008F8305C02F5F3F4F2630310539F71881BF
:1029D000012F0770C701BE010E945B139C016F812C
:1029E0004B815C81181619066CF476E0880F991FEC
:1029F0007A95E1F702C0969587956A95E2F7840F7C
:102A0000951F12C088279927821B930B36E0880FE9
:102A1000991F3A95E1F702C0969587956A95E2F776
:102A20009A01281B390BC9019C838B8313FF03C0B8
:102A30009F739C838B8389819A81BE010E945B1363
:102A40009C018D8190E0821793071CF40E831D82F8
:102A50000AC08E8190E0909581959F4F2817390785
:102A60005CF41E820D838B819C8126E09695879570
:102A70002A95E1F79A8389834D2D50E0FA0183E08E
:102A8000EE0FFF1F8A95E1F7E253FE4F208122955A
:102A9000269527702F5F88E090E0821B91092181A5
:102AA000328102C0369527958A95E2F7FA01E55AF8
:102AB000FA4F808190E08217930751F02083809134
:102AC0006305909164058460909364058093630529
:102AD000CDB7DEB7E7E00C94E415A0E0B0E0E3E7A3
:102AE000F5E10C94C71590E013E0880F991F1A9533
:102AF000E1F7FC01E959FA4FE680F62E00E010E01C
:102B000050E0CC24DD24C41AD50AEC01C559DA4FB3
:102B10000DC08F2D0E94E60E9C01C816D9061CF030
:102B2000888184608883020F131FF394EF1488F761
:102B3000C801CDB7DEB7E8E00C94E315629FD00181
:102B4000739FF001829FE00DF11D649FE00DF11D68
:102B5000929FF00D839FF00D749FF00D659FF00D17
:102B60009927729FB00DE11DF91F639FB00DE11D04
:102B7000F91FBD01CF01112408952F923F924F926A
:102B80005F926F927F928F929F92AF92BF92CF92FD
:102B9000DF92EF92FF920F931F93CF93DF93CDB706
:102BA000DEB7CA1BDB0B0FB6F894DEBF0FBECDBF7E
:102BB00009942A88398848885F846E847D848C844F
:102BC0009B84AA84B984C884DF80EE80FD800C8158
:102BD0001B81AA81B981CE0FD11D0FB6F894DEBF3B
:0C2BE0000FBECDBFED010895F894FFCFAB
:102BEC001900C30C0102C30C0202C30C0402C30C77
:102BFC000802C30C1002C30C2002C30C4002C30C0D
:102C0C0080020001010202040308041005200640A2
:102C1C0007800140404040404040404040404040E0
:102C2C004040404040404040404040404040404098
:102C3C004040404040404040404040404040404088
:102C4C004040404040404040404040404040404078
:042C5C0040404000B4
:00000001FF
