:1000000013C02DC02CC02BC02AC029C028C027C0B7
:1000100026C026C024C023C022C021C020C01FC0CB
:100020001EC01DC01CC01BC011241FBECFEFD2E0DC
:10003000DEBFCDBF11E0A0E0B1E0E8E0F0E102C03A
:1000400005900D92A232B107D9F711E0A2E2B1E01A
:1000500001C01D92AF39B107E1F74FD0D3C7D0CF60
:100060001F920F920FB60F9211242F933F938F93ED
:100070009F9381E08093220180912301909124013C
:100080002091000130910101820F931F9093240170
:10009000809323019F918F913F912F910F900FBEDD
:1000A0000F901F901895582F282F392FF90120C035
:1000B000908180E097FF02C0479A01C0479823E0F3
:1000C0002A95F1F70000719A23E02A95F1F70000D4
:1000D000719823E02A95F1F700008F5F883011F0C6
:1000E000990FE8CF479880E18A95F1F700C03196E3
:1000F0008E2F851B8617E0F20895EF92FF921F93D3
:10010000DF93CF9300D0CDB7DEB780E88093610056
:1001100011E01093610085B7806185BF3F9A699AAD
:1001200080E061E04AE023E066D181E061E04AE0FE
:1001300023E061D182E061E04AE023E05CD183E02A
:1001400061E04AE023E057D184E061E04AE023E047
:1001500052D185E061E04AE023E04DD186E061E0E4
:100160004AE023E048D187E061E04AE023E043D160
:100170001093350185E28093360189E4809337013D
:100180008DE68093380181E98093390185EB809376
:100190003A0189ED80933B018DEF80933C0179D248
:1001A00084E080933E0194E19093410185E0809347
:1001B00042011092400190933F0110933D018AE06B
:1001C00080934301809100019091010164EF71E0FF
:1001D000D0D6909389008093880080916F008260D0
:1001E00080936F0080918100826080938100809174
:1001F00081008860809381001093330188E08093B0
:100200003401109245011092440178947E010894C3
:10021000E11CF11C809122018823E1F3109222015C
:10022000809123019091240194D190FDF9CF83E333
:1002300091E062E038DF86E491E060E134DF86E55A
:1002400091E060E130DF10E0812F17D19A8389833C
:10025000C70162E028DF1F5F1830B1F786E691E042
:1002600061E021DF85E391E068E01DDFD3CF3F93BC
:100270009F9338B1982F9095392338B93BB13923E2
:100280003BB9982F37B1392B37B93AB1392B3AB935
:10029000962F909535B1392335B934B1962F392B36
:1002A00034B95F98579A2AB037B04AB057B02F93F5
:1002B000242F2095422252222F910000000000009E
:1002C00057B89F913F9108953F939F934AB883B940
:1002D00000000000000037B800000000000057B820
:1002E0002AB883B99F913F9108955F9A08955F98C6
:1002F00037B80000000000000895A0E0B0E0E2E898
:10030000F1E054C6182FD62E0FB70078F8948091DC
:1003100064008E7F80936400E12FE695E695F0E01F
:10032000EE0FFF1FDF01AC5EBE4F8C9180937C000F
:1003300080916400816080936400EB5EFE4F809149
:100340009B0160919C01408192DFC12FD0E0FE01B2
:10035000E75EFE4FF08010E0EE24E39414C0F894C2
:100360008D2DB2DF8FB7802B8FBF809118018F5FEB
:1003700080931801823030F0823021F0833011F008
:10038000E09218011F5F1F1550F3F894AEDF109232
:10039000850010928400B59A00B605FE0EC08FB796
:1003A000802B8FBFB59BFECF8091860090918700F8
:1003B000CC0FDD1FCA5BDE4F06C0CC0FDD1FCA5B52
:1003C000DE4F81E090E09983888391DF8FB7082B1F
:1003D0000FBFCDB7DEB7E7E005C6FC0181E490E0D2
:1003E0009183808384E490E09383828380E194E02E
:1003F0009583848308950F931F93082F162F3091B0
:100400006A01ABE6B1E0832F90E066E070E0B1D521
:10041000FD01E80FF91F4383832F90E066E070E051
:10042000A8D5FD01E80FF91F1770110F110F110F5B
:100430001483832F90E066E070E09BD5FD01E80F08
:10044000F91F0583832F90E066E070E092D5FD01EF
:10045000E80FF91F2370832F90E066E070E089D5E4
:10046000A80FB91F14968C918C7F822B84833F5FD9
:1004700030936A011F910F9108950F931F93CF93AB
:10048000DF93082F90E066E070E073D5FC01E5593A
:10049000FE4F2581802F90E066E070E06AD5FC0178
:1004A000E559FE4F838190E000903D0102C0959593
:1004B00087950A94E2F7182F843008F414E08091AD
:1004C0006A01081718F020E030E03DC0822F2DD1DE
:1004D0009C01C12FD0E016951695812F90E08C1BC2
:1004E0009D0B82179307A4F4802F90E066E070E0E4
:1004F00040D5FC01E559FE4F802F90E066E070E0AA
:1005000038D5DC01A559BE4F14968C918B7F84831E
:10051000882799278C1B9D0B82179307A4F0802FA7
:1005200090E066E070E025D5FC01E559FE4F802F94
:1005300090E066E070E01DD5DC01A559BE4F149631
:100540008C9184608483C901DF91CF911F910F91B9
:100550000895FF920F931F93CF93DF93109268013A
:100560001092670120912701309128019093280172
:10057000809327014091290150912A01421B530B7E
:10058000480F591FFF2403C0F394485C5040483C77
:100590005105D0F750932A014093290180916901B8
:1005A000882341F08F1518F41092690103C08F1948
:1005B0008093690194D4E0914401F0914501309712
:1005C00009F0099510E000E005C0812F6F2DC2D021
:1005D000082B1F5F60916A011617B8F3002349F0DA
:1005E0008091670190916801916090936801809378
:1005F000670110926601ABE6B1E030E041E050E007
:1006000017C08C91887191F0E32FE695E695E695F9
:10061000F0E0EA5BFE4F832F8770EA0102C0CC0F47
:10062000DD1F8A95E2F720A12C2B20A33F5F1696B1
:10063000361738F38091670190916801CDB7DEB726
:10064000E5E0D2C410926A0184E080933E0194E117
:100650009093410185E08093420110924001909374
:100660003F0181E080933D018AE080934301C8D33C
:10067000109245011092440108951F9310E003C0A9
:10068000812F18D01F5F80916A011817C8F31F913E
:1006900008951F9310E003C0812F0CD01F5F80913D
:1006A0006A011817C8F31092280110922701DDD3B0
:1006B0001F910895282FABE6B1E090E066E070E06E
:1006C00058D4FD01E80FF91F3581809167019091A1
:1006D000680182609093680180936701822F90E0A7
:1006E00063E070E046D4FC013196EE0FFF1FEA0F85
:1006F000FB1F1082EBE2F1E0E30FF11D80E8808345
:10070000822F90E066E070E034D4FD01E80FF91F1D
:1007100081E08083822F90E066E070E02AD4A80F09
:10072000B91F8FE011968C93089590E0FC013896E4
:10073000A6E4B1E0EE0FFF1FEA0FFB1F880F991F21
:10074000A80FB91F208131818D919C91281B390BF5
:10075000C9010895EF92FF920F931F93CF93DF93F8
:10076000182F062F8ADEEC01812F90E066E070E002
:1007700000D4FC01E559FE4FA481812F90E066E092
:1007800070E0F7D3FC01E559FE4F4381242F30E0A0
:100790008A2F837090E0019602C0359527958A953F
:1007A000E2F7822F223008F482E0242F30E0790132
:1007B000E81AF108812F90E066E070E0DAD3FC01DE
:1007C000E559FE4FE081E43009F42FC1E53030F403
:1007D000E13071F0E23009F00DC390C0E03109F46E
:1007E000F2C1E03209F4A4C2E83009F003C353C2F5
:1007F000C0916701D0916801CE0192609093680129
:1008000080936701812F90E066E070E0B2D3FC0135
:10081000E559FE4F2581812F90E066E070E0A9D375
:10082000FC01E559FE4F4181A22FB0E04A3060F053
:10083000AA0FBB1FFD01EA5BFE4F80819181AA5A7E
:10084000BE4F8D939C9316C0AA0FBB1FFD01EA5AA1
:10085000FE4F80819181AA5BBE4F2D913C9128175C
:10086000390710F4019704C08217930748F40196E2
:1008700091838083C860D260D0936801C093670180
:10088000242F2150812F90E066E070E072D3FC01AC
:10089000E559FE4F2183222361F5812F90E066E028
:1008A00070E067D3FC01E559FE4FA581812F90E0F0
:1008B00066E070E05ED3FC01E559FE4F82E0808384
:1008C00080916701909168018260909368018093A4
:1008D0006701812F90E063E070E04BD3FC01EE0FE5
:1008E000FF1FE359FE4F1082B0E0A55DBE4F80E8C8
:1008F0008C9380913F01809369017AC2A2FF14C05A
:10090000812F90E066E070E034D3FC01E559FE4FA2
:1009100080E28083812F90E066E070E02AD3FC01C2
:10092000E559FE4F118255C2CE01D7FF02C080E0CB
:1009300090E082179307B0F0812F90E066E070E0BE
:1009400018D3FC01E559FE4F84E08083812F90E0AD
:1009500063E070E00ED3FC01EE0FFF1FE359FE4F82
:1009600010823DC2002309F445C2809169018823A9
:1009700009F040C2812F90E066E070E0FAD2FC01FD
:10098000E559FE4F858190E0EC01CC0FDD1FCA5A7E
:10099000DE4F28813981FC01EE0FFF1FEA5BFE4F1D
:1009A0000190F081E02D2E173F0788F4FC01E55DF2
:1009B000FE4F9081900F908380914201805898174C
:1009C00008F418C280E880832F5F3F4F14C0DC0119
:1009D000A55DBE4FE217F307D0F48C91801B8C937A
:1009E00040E890914101542F591B581708F402C256
:1009F0004C93215030403983288380916701909136
:100A0000680188609093680180936701F3C12C911D
:100A1000213810F021502C93FC01E55DFE4F8081C0
:100A200087FDE8C18F5F8083E5C1CE01D7FF02C09B
:100A300080E090E08217930708F498C180913F010D
:100A400080936901812F90E063E070E092D2DC0135
:100A5000AA0FBB1FA359BE4F812F90E063E070E047
:100A600088D2FC01EE0FFF1FE359FE4F80818F5F9C
:100A70008C93812F90E066E070E07BD2FC01E55919
:100A8000FE4F848190E08873907033E0969587954F
:100A90003A95E1F7E82E882309F458C000E0FF24D6
:100AA0004EC0011709F44AC0802F90E066E070E064
:100AB00060D2FC01E559FE4F848190E0887390700C
:100AC00023E0969587952A95E1F7E816B9F5802FEA
:100AD000D4DC9C01802F90E066E070E04AD2FC01FB
:100AE000E559FE4F8381281B3109812F90E066E094
:100AF00070E03FD2FC01E559FE4F8381AE01481BF7
:100B00005109421753076CF0802F90E066E070E0C7
:100B100030D2FC01E559FE4FE081E03111F0E830C0
:100B200069F4812F90E063E070E023D2FC01EE0FC6
:100B3000FF1FE359FE4F1082FF24F3940F5F809153
:100B40006A01081708F4ADCFFF2079F480913E01C7
:100B5000882359F080916701909168019860909383
:100B600068018093670121E001C020E0812F90E0BF
:100B700063E070E0FED1FC01EE0FFF1FE359FE4F72
:100B8000908180913E01981708F435C180916701EA
:100B90009091680183609093680180936701812F31
:100BA00090E066E070E0E5D1FC01E559FE4F80E1A0
:100BB0008083812F90E066E070E0DBD1FC01E55995
:100BC000FE4F118218C1CE01D7FF02C080E090E035
:100BD000A0916701B09168018E159F0580F4812F67
:100BE00090E066E070E0C5D1FC01E559FE4F88E079
:100BF0008083B460B0936801A093670146C0A16090
:100C0000B0936801A0936701812F90E063E070E0EA
:100C1000B0D1FC01EE0FFF1FE359FE4F2081809100
:100C20003E01281760F4812F90E063E070E0A1D1CD
:100C3000FC01EE0FFF1FE359FE4F2F5F2083309121
:100C400040013323A9F0812F90E066E070E091D15C
:100C5000FC01E559FE4F2181231760F4812F90E0BC
:100C600066E070E086D1FC01E559FE4F200F21833C
:100C700020E00CC0812F1EDD8091670190916801FA
:100C80009260909368018093670121E080913F0119
:100C900080936901B0C080913F0180936901812FE9
:100CA00090E063E070E065D1FC01EE0FFF1FE359B7
:100CB000FE4F8081882309F459C0CE01D7FF02C0BE
:100CC00080E090E0A0916701B0916801E816F90614
:100CD00088F4812F90E066E070E04BD1FC01E5598B
:100CE000FE4F80E18083A160B0936801A09367010B
:100CF00020E006C0B460B0936801A093670121E0D2
:100D0000812F90E063E070E034D1FC01EE0FFF1F13
:100D1000E359FE4F812F90E063E070E02AD1DC01BF
:100D2000AA0FBB1FA359BE4F8C918150808363C013
:100D3000812F90E066E070E01CD1FC01E559FE4F88
:100D400021812F5F812F90E066E070E012D1FC01DD
:100D5000E559FE4F2183812F90E066E070E009D1D4
:100D6000FC01E559FE4F848182FD2DC0812F90E06A
:100D700066E070E0FED0FC01E559FE4FA581812FB1
:100D800090E066E070E0F5D0FC01E559FE4F82E0AE
:100D900080838091670190916801826090936801DF
:100DA00080936701812F90E063E070E0E2D0FC0166
:100DB000EE0FFF1FE359FE4F1082B0E0A55DBE4F5E
:100DC00080E88C9317C080914301281740F0812F51
:100DD00071DC8091670190916801906105C08091FC
:100DE0006701909168019460909368018093670116
:100DF00021E001C020E0822FCDB7DEB7E6E0F3C0EE
:100E0000E9E1F1E080E4819391E0E132F907D9F77B
:100E10000895E82FE695E695F0E0EE0FFF1FEC5EF3
:100E2000FE4F21E030E0008002C0220F331F0A9401
:100E3000E2F740919B01422B40939B01837090E02D
:100E4000A4E0B1E0880F991F880F991FFD01E80FFA
:100E5000F91FE381F0E0E556FE4FA80FB91F80812E
:100E600012969C91892B808308951F9381E0809333
:100E7000180110929B0110929C0110929D011092FA
:100E80009E0110E00BC0812F90E066E070E071D011
:100E9000FC01E559FE4F8581BCDF1F5F80916A012F
:100EA000181788F31F9108951F931FB7282F2370D9
:100EB00030E0E4E0F1E0220F331F220F331FDF01A7
:100EC000A20FB31FE20FF31F2D913C916281F90134
:100ED00009958FB71078182B1FBF1F910895A0E0B8
:100EE000B0E0E4E7F7E05EC00FB790907B00A0B6FB
:100EF000B0908000C0908100D6B2C0918400D091A3
:100F00008500E0906400F0907C0080E480937B009A
:100F100084E080BF1092800081E880938100F89483
:100F200010E00BC0812F90E066E070E022D0FC0161
:100F3000E559FE4F8581B8DF1F5F80916A01181760
:100F400088F390927B00A0BEB0928000C092810096
:100F5000D6BAD0938500C0938400E0926400F092EA
:100F60007C008FB70078082B0FBFCDB7DEB7EBE062
:100F700035C05527002480FF02C0060E571F660F9C
:100F8000771F6115710521F096958795009799F760
:100F9000952F802D08952F923F924F925F926F92DE
:100FA0007F928F929F92AF92BF92CF92DF92EF92F9
:100FB000FF920F931F93CF93DF93CDB7DEB7CA1B7A
:100FC000DB0B0FB6F894DEBF0FBECDBF09942A88A5
:100FD000398848885F846E847D848C849B84AA844D
:100FE000B984C884DF80EE80FD800C811B81AA81DA
:100FF000B981CE0FD11D0FB6F894DEBF0FBECDBFA5
:08100000ED010895F894FFCF03
:10100800190046017D0101017D0102017D010401F4
:101018007D0108010001010201404040404040407C
:02102800400086
:00000001FF
