:1000000013C02DC02CC02BC02AC029C028C027C0B7
:1000100026C026C024C023C022C021C020C01FC0CB
:100020001EC01DC01CC01BC011241FBECFEFD2E0DC
:10003000DEBFCDBF11E0A0E0B1E0EAE4F4E102C030
:1000400005900D92A232B107D9F711E0A2E2B1E01A
:1000500001C01D92A23DB107E1F74FD0F4C9D0CF46
:100060001F920F920FB60F9211242F933F938F93ED
:100070009F9381E08093220180912301909124013C
:100080002091000130910101820F931F9093240170
:10009000809323019F918F913F912F910F900FBEDD
:1000A0000F901F901895582F282F392FF90120C035
:1000B000908180E097FF02C0479A01C0479823E0F3
:1000C0002A95F1F70000719A23E02A95F1F70000D4
:1000D000719823E02A95F1F700008F5F883011F0C6
:1000E000990FE8CF479880E18A95F1F700C03196E3
:1000F0008E2F851B8617E0F20895CF92DF92EF9244
:10010000FF920F931F93DF93CF9300D00F92CDB741
:10011000DEB780E88093610011E01093610085B73D
:10012000806185BF3F9A699A80E063E041E020E109
:1001300003E097E0E92ECC24ACD684E067E041E010
:1001400020E18BD682E68093550183EF80935601A0
:100150006CD284E080935E0194E19093610185E02C
:10016000809362011092600190935F0110935D0192
:100170008AE080936301809100019091010164EF16
:1001800071E0FFD8909389008093880080916F0080
:10019000826080936F0080918100826080938100F3
:1001A0008091810088608093810081E28093530177
:1001B00088E0809354011092650110926401789454
:1001C00082E0C82ED12CCC0EDD1E7E010894E11CED
:1001D000F11C809122018823E1F310922201809189
:1001E0002301909124017FD190FDF9CF198283E5FD
:1001F00091E062E058DF86E691E060E154DF86E757
:1002000091E060E150DF10E0812F0BD19B838A8366
:10021000C60162E048DF1F5F1830B1F786E891E061
:1002200061E041DF87E891E061E03DDFC70161E027
:100230003ADF88E891E061E036DFC70161E033DF53
:1002400085E591E068E02FDFC4CF3F939F9338B1FD
:10025000982F9095392338B93BB139233BB9982F62
:1002600037B1392B37B93AB1392B3AB9962F909526
:1002700035B1392335B934B1962F392B34B95F985C
:10028000579A2AB037B04AB057B02F93242F2095F1
:10029000422252222F9100000000000057B89F9187
:1002A0003F9108953F939F934AB883B9000000009F
:1002B000000037B800000000000057B82AB883B922
:1002C0009F913F9108955F9A08955F9837B8000015
:1002D000000000000895A0E0B0E0E0E7F1E087C88A
:1002E000182FD62E0FB70078F894809164008E7F77
:1002F00080936400E12FE695E695F0E0EE0FFF1F96
:10030000DF01AC5EBE4F8C9180937C0080916400D5
:10031000816080936400EB5EFE4F8091CD0160911F
:10032000CE01408192DFC12FD0E0FE01E75EFE4F9B
:10033000F08010E0EE24E39414C0F8948D2DB2DF29
:100340008FB7802B8FBF809118018F5F809318012A
:10035000823030F0823021F0833011F0E0921801C9
:100360001F5F1F1550F3F894AEDF109285001092B6
:100370008400B59A00B605FE0EC08FB7802B8FBFE4
:10038000B59BFECF8091860090918700CC0FDD1F3A
:10039000CA59DE4F06C0CC0FDD1FCA59DE4F81E0BF
:1003A00090E09983888391DF8FB7082B0FBFCDB77B
:1003B000DEB7E7E038C8FC0181E494E191838083F3
:1003C00084E490E09383828380E194E09583848346
:1003D00008950F931F9390918C01E92FF0E00DE8A1
:1003E00011E053E0EE0FFF1F5A95E1F7D801AE0F71
:1003F000BF1F13964C9313970E0F1F1F6770159610
:100400008C93159716968C932370660F660F660F64
:10041000262BF80124839F5F90938C011F910F91ED
:100420000895EF92FF921F93CF93DF93282FE82E2A
:10043000FF24F701A3E0EE0FFF1FAA95E1F7E357B2
:10044000FE4F6581838190E000905D0102C095952B
:1004500087950A94E2F7182F843008F414E080910D
:100460008C01281718F020E030E036C0E70173E077
:10047000CC0FDD1F7A95E1F7CF56DE4F9881892F9B
:10048000807C21F5862F1DD19C01412F50E01695CF
:100490001695812F90E0841B950B821793071CF40F
:1004A00088818B7F888388279927841B950B8217E7
:1004B000930794F0F70163E0EE0FFF1F6A95E1F7F1
:1004C000EF56FE4F80818460808306C09B7F9883B7
:1004D000822F412F28D79C01C901DF91CF911F9115
:1004E000FF90EF900895FF920F931F93CF93DF93A8
:1004F00010928A01109289012091270130912801E0
:1005000090932801809327014091290150912A015D
:10051000421B530B480F591FFF2403C0F394485C40
:100520005040483C5105D0F750932A01409329018F
:1005300080918B01882341F08F1518F410928B0164
:1005400003C08F1980938B01EED3E0916401F09189
:100550006501309709F0099510E000E005C0812F92
:100560006F2DC4D0082B1F5F60918C011617B8F354
:10057000002349F08091890190918A0191609093C4
:100580008A018093890110928601ADE8B1E030E0E4
:1005900041E050E017C08C91887191F0E32FE6950F
:1005A000E695E695F0E0EA59FE4F832F8770EA0161
:1005B00002C0CC0FDD1F8A95E2F720A12C2B20A3CF
:1005C0003F5F1896361738F38091890190918A0120
:1005D000CDB7DEB7E5E029C710928C011092D101AA
:1005E00084E080935E0194E19093610185E08093C3
:1005F00062011092600190935F0181E080935D0140
:100600008AE0809363011BD310926501109264010C
:1006100008951F9310E003C0812F41D01F5F809188
:100620008C011817C8F31F9108951F9310E003C0A1
:10063000812F35D01F5F80918C011817C8F310925D
:1006400028011092270134D31F910895E82FF0E07C
:1006500093E0EE0FFF1F9A95E1F7DF01A357BE4F1E
:1006600015962C91159716963C91169782E08C93CF
:100670008091890190918A01826090938A01809390
:100680008901E157FE4F108280E806C0E22FF0E0BA
:10069000E55DFE4F80832F5F3217C0F708951F93EB
:1006A000182FD4DFE12FF0E023E0EE0FFF1F2A9593
:1006B000E1F7E357FE4F81E080838FE081831F9154
:1006C000089590E0FC013896A6E6B1E0EE0FFF1F1A
:1006D000EA0FFB1F880F991FA80FB91F20813181D6
:1006E0008D919C91281B390BC9010895A0E0B0E0C1
:1006F000EBE7F3E075C6782EE62E93DE5C01C72D9E
:10070000D0E0FE0173E0EE0FFF1F7A95E1F7EF56A0
:10071000FE4F5081FE0163E0EE0FFF1F6A95E1F787
:10072000E357FE4F4381242F30E0852F837090E004
:10073000019602C0359527958A95E2F7822F2230DF
:1007400008F482E0242F30E0B901681B7109FE0132
:1007500043E0EE0FFF1F4A95E1F7DF01A357BE4FBD
:100760008C91843009F4E7C0853030F4813071F029
:10077000823009F05EC259C0803109F491C18032E3
:1007800009F42DC2883009F054C2EAC120918901D0
:1007900030918A01326015966C91159716967C916E
:1007A00016978F01AD014F5F5F4F2AC0DA018C9120
:1007B000A62FB0E08A3060F0AA0FBB1FFD01EA59F6
:1007C000FE4F80819181AA58BE4F8D939C9316C095
:1007D000AA0FBB1FED01CA58DE4F88819981AA5923
:1007E000BE4FED91FC91E817F90710F4019704C092
:1007F0008E179F0720F401969983888328606F5F86
:100800007617A0F630938A0120938901F801E35707
:10081000FE4F818181508183882311F4872D16DF5B
:1008200080915F0180938B0102C252FF05C080E27C
:100830008C9311961C92ECC1C501B7FE02C080E0FA
:1008400090E08217930770F063E0CC0FDD1F6A958C
:10085000E1F7FE01E357FE4F84E08083C157DE4F8E
:100860001882DCC1EE2009F4E4C180918B01882359
:1008700009F0DFC1FE0143E0EE0FFF1F4A95E1F7EB
:10088000E357FE4F1581D680F0906201B0E8FB0E71
:1008900000E880916101081B6091890170918A01D3
:1008A00030E8C32E40C0412F50E0EA01CC0FDD1FDD
:1008B000CA58DE4F28813981FA01EE0FFF1FEA592D
:1008C000FE4F0190F081E02D2E173F0760F4FA01F2
:1008D000E55DFE4F80818E0D80838F1518F1C082FB
:1008E0002F5F3F4F0EC0DA01A55DBE4FE217F30741
:1008F00060F48C918E198C930817A0F0CC92215043
:1009000030403983288368600DC09C91913810F085
:1009100091509C93FA01E55DFE4F808187FD02C0F6
:100920008F5F80831F5FD11608F0BDCF70938A015F
:10093000609389017EC1C501B7FE02C080E090E0EE
:100940008217930708F45BC180915F0180938B014C
:10095000DE0183E0AA0FBB1F8A95E1F7A157BE4FC6
:100960008C918F5F8C93FE0113E0EE0FFF1F1A95A1
:10097000E1F7EF56FE4F808190E088739070F3E0CE
:1009800096958795FA95E1F7682E882309F44DC06E
:10099000DD24CC247E01E3E0EE0CFF1CEA95E1F7B8
:1009A000E0E9F1E0EE0EFF1E4D0139C0D714B1F1C0
:1009B0000D2D10E0F80173E0EE0FFF1F7A95E1F7BF
:1009C000EF56FE4F808190E08873907063E09695BB
:1009D00087956A95E1F7681609F58D2D22DDF801F6
:1009E00053E0EE0FFF1F5A95E1F7E357FE4F2381C7
:1009F000821B9109D7012C91A501421B510948176F
:100A000059071CF4D4011C9207C0E081E03111F0B9
:100A1000E83021F4F4011082CC24C394D394809163
:100A20008C01D81618F2CC2079F480915E018823CD
:100A300059F08091890190918A01986090938A0180
:100A40008093890111E001C010E0FE0143E0EE0F48
:100A5000FF1F4A95E1F7E157FE4F908180915E01BB
:100A6000981708F4E7C08091890190918A0183600A
:100A700090938A018093890133E0CC0FDD1F3A9572
:100A8000E1F7FE01E357FE4F80E180831182CF56EC
:100A9000DE4F8881807C09F4CDC0872D5DD3CAC02C
:100AA000C501B7FE02C080E090E0409189015091FD
:100AB0008A018617970778F493E0CC0FDD1F9A958B
:100AC000E1F7C357DE4F88E08883546050938A0172
:100AD000409389013FC0416050938A01409389014E
:100AE000FE0183E0EE0FFF1F8A95E1F7E157FE4F0D
:100AF000908180915E01981710F49F5F9083FE01B2
:100B000013E0EE0FFF1F1A95E1F7EF56FE4F8081BD
:100B1000807C11F0872D45D390916001992369F075
:100B2000FE01B3E0EE0FFF1FBA95E1F7E357FE4F6A
:100B30008181891720F48E0D818310E00CC0872DF0
:100B4000AEDD8091890190918A01926090938A0133
:100B50008093890111E080915F0180938B016AC0CD
:100B600080915F0180938B01FE01A3E0EE0FFF1FD8
:100B7000AA95E1F7E157FE4F8081882309F43FC031
:100B8000C501B7FE02C080E090E04091890150911C
:100B90008A016817790788F4FE0173E0EE0FFF1FE2
:100BA0007A95E1F7E357FE4F80E1808341605093EF
:100BB0008A014093890110E006C0546050938A0175
:100BC0004093890111E0FE0163E0EE0FFF1F6A957B
:100BD000E1F7E157FE4F8081815080832BC0119651
:100BE0009C9111979F5F11969C9353E0CC0FDD1F52
:100BF0005A95E1F7CF56DE4F888182FD03C0872DDD
:100C000025DD17C080916301981740F0872D47DDDF
:100C10008091890190918A01906105C0809189013C
:100C200090918A01946090938A018093890111E0E8
:100C300001C010E0812FCDB7DEB7EEE0EDC3E9E1F2
:100C4000F1E080E4819391E0E132F907D9F708956A
:100C5000FF920F931F93CF93DF93EC0100E020C02E
:100C6000802F90E023E0880F991F2A95E1F7FC017F
:100C7000EF56FE4F2081207CFC0131F4E357FE4FFC
:100C80008581FE0109950BC0E357FE4FF680158163
:100C900004C0812FFE0109951F5FF116D0F70F5F89
:100CA00080918C010817E0F2CDB7DEB7E5E0BDC357
:100CB00081E0809318011092CD011092CE01109224
:100CC000CF011092D00187E696E0C2DF0895E82FA9
:100CD000E695E695F0E0EE0FFF1FEC5EFE4F21E09B
:100CE00030E0008002C0220F331F0A94E2F74091E7
:100CF000CD01422B4093CD01837090E0A4E0B1E0A0
:100D0000880F991F880F991FFD01E80FF91FE381D4
:100D1000F0E0E353FE4FA80FB91F808112969C911B
:100D2000892B80830895A0E0B0E0E8E9F6E05AC39B
:100D30001FB7EBE7F0E0908080B6A0E8B0E0AC90A1
:100D400021E830E0E9010881D6B2E0908400F0901B
:100D50008500C0906400B0907C0080E4808384E0D3
:100D600080BF1C9281E88883F89480ED96E070DF64
:100D700090927B0080BEA092800000938100D6BA42
:100D8000F0928500E0928400C0926400B0927C00F2
:100D90008FB71078182B1FBFCDB7DEB7ECE03EC37E
:100DA0001F931FB7282F237030E0E4E0F1E0220FFB
:100DB000331F220F331FDF01A20FB31FE20FF31FF8
:100DC0002D913C916281F90109958FB71078182B0C
:100DD0001FBF1F910895AF92CF92EF920F939C2D5A
:100DE000E0918C01F0E073E0EE0FFF1F7A95E1F7E0
:100DF000DF01A357BE4F13962C931397EF56FE4F68
:100E00002091D10117962C931797477015968C93C4
:100E1000159716966C930370440F440F440F042BE0
:100E20000083E22FF0E09770E294EE0C30EEE322C4
:100E30009E2983E0EE0FFF1F8A95E1F7ED5CFE4FE0
:100E40009083AA2011F0986090832F5F2093D101A6
:100E50000F91EF90CF90AF900895AF92CF92EF9215
:100E60000F93AA24B8DF90918C01E92FF0E0A3E062
:100E7000EE0FFF1FAA95E1F7EF56FE4F80818068C5
:100E800080839F5F90938C010F91EF90CF90AF90F4
:100E90000895AF92CF92EF920F93AA24A3949BDF71
:100EA00090918C01E92FF0E0B3E0EE0FFF1FBA95AF
:100EB000E1F7EF56FE4F8081806480839F5F9093BF
:100EC0008C010F91EF90CF90AF900895611571054F
:100ED00011F14F5F03C04150880F991F97FD06C065
:100EE0004423C9F703C04F5F660F771F77FFFBCF1F
:100EF00020E030E00CC0220F331F8617970720F048
:100F0000861B970B2F5F3F4F415076956795442383
:100F100021F037FFF0CF2FEF3FEFC9010895FB011C
:100F200023813481B6E036952795BA95E1F7821B87
:100F3000930B9C01808183FF0CC0213831051CF08C
:100F40002050314006C08FEF2038380714F420506D
:100F50003F4FC9010895A0E0B0E0E0EBF7E046C2E2
:100F6000E82FF0E073E0EE0FFF1F7A95E1F7E3570B
:100F7000FE4FA781B0E063E0AA0FBB1F6A95E1F7BF
:100F8000AD5CBE4FEC9058E0C52EEC20068185810B
:100F9000D02ED81AFD2CF394182FC82FD0E019C0EA
:100FA000812F8FDBE12FF0E0181619064CF4EC1BB3
:100FB000FD0BEE0FFF1FED5BFE4F9183808308C09A
:100FC000EC1BFD0BEE0FFF1FED5BFE4F118210823D
:100FD0001F5F011728F71091430100914401E5E4D8
:100FE000F1E0812F902F9C01D90121E070E00BC02E
:100FF00080819181A817B90710F0CD0101C0722F2F
:101000002F5F3296DC012F1598F37723B9F4EE2089
:1010100021F460E040E050E01AC0EF2DF0E0EE0F68
:10102000FF1FEF5BFE4F4081518180914501909100
:1010300046018417950750F461E009C0E72FF0E0FE
:10104000EE0FFF1FEF5BFE4F4081518160E07D1589
:1010500049F4EE2019F420E030E00CC0812F902FED
:101060009C0108C0E72FF0E0EE0FFF1FEB5BFE4F87
:1010700020813181662341F0C0E0D0E06E018F2DE8
:10108000880F880FD82E06C0C0E0D0E06E01770F21
:10109000770FD72EE601C0E04217530768F0CD0165
:1010A000821B930BBC01621B730B640F751F4AE01C
:1010B0000DDF805094400AC0B901641B750BA41B5E
:1010C000B50BCB016A0F7B1F4AE000DF9C012C0FA0
:1010D0003D1F52E0D52EDF1470F4EE2021F0C9013F
:1010E0006F2D70E005C06F2D70E061507040C90138
:1010F00040E0ECDE9C01C90180709C7F892B11F0DF
:101100002FEF33E0EE2029F0369527953695279579
:101110001EC02636310518F460E070E003C0B90146
:101120006656704080E090E028E33FE940E050E000
:101130003AD121E196958795779567952A95D1F7CC
:101140009B016F3F710519F010F02FEF30E0C901DE
:10115000CDB7DEB7E8E066C11F93E82FF0E013E0FB
:10116000EE0FFF1F1A95E1F7E357FE4F1781F3DEED
:10117000E12FF0E0B3E0EE0FFF1FBA95E1F7ED5C71
:10118000FE4F2081277092838183268325831782D7
:10119000A6E0880F991FAA95E1F7948383831F9196
:1011A0000895A0E0B0E0E6EDF8E021C1E82FF0E01E
:1011B000A3E0EE0FFF1FAA95E1F7E357FE4FD7809C
:1011C000CADE7C01CD2DD0E0E3E0CC0FDD1FEA9537
:1011D000E1F7CD5CDE4FBE01A2DEAC0197FF03C09C
:1011E000509541955F4F20E030E0E0E4F0E0CF0122
:1011F000022E02C0969587950A94E2F78417950708
:1012000050F48F81281710F4815003C0863040F4C9
:101210008F5F8F8305C02F5F3F4F2630310539F731
:101220001881012F0770C701BE0179DE9C016F8113
:101230004B815C81181619066CF476E0880F991FB3
:101240007A95E1F702C0969587956A95E2F7840F43
:10125000951F12C088279927821B930B36E0880FB1
:10126000991F3A95E1F702C0969587956A95E2F73E
:101270009A01281B390BC9019C838B8313FF03C080
:101280009F739C838B8389819A81BE0148DE9C0178
:101290008D8190E0821793071CF40E831D820AC093
:1012A0008E8190E0909581959F4F281739075CF4C7
:1012B0001E820D838B819C8126E0969587952A95C9
:1012C000E1F79A8389834D2D50E0FA0183E0EE0F18
:1012D000FF1F8A95E1F7ED5CFE4F20812295269550
:1012E00027702F5F88E090E0821B91092181328175
:1012F00002C0369527958A95E2F7FA01EA59FE4F22
:1013000081A190E08217930751F021A38091890178
:1013100090918A01846090938A0180938901CDB76E
:10132000DEB7E7E080C0A0E0B0E0E8E9F9E05EC049
:1013300090E013E0880F991F1A95E1F7FC01E3573D
:10134000FE4FE680F62E00E010E050E0CC24DD24D5
:10135000C41AD50AEC01CF56DE4F0CC08F2DB1D97F
:101360009C01C816D9061CF0888184608883020F0E
:10137000131FF394EF1490F7C801CDB7DEB7E8E080
:1013800051C05527002480FF02C0060E571F660F6C
:10139000771F6115710521F096958795009799F74C
:1013A000952F802D0895FF27EE27BB27AA2760FFE2
:1013B00004C0A20FB31FE41FF51F220F331F441FE9
:1013C000551F969587957795679589F700977607C6
:1013D00071F7CF01BD0108952F923F924F925F9216
:1013E0006F927F928F929F92AF92BF92CF92DF9235
:1013F000EF92FF920F931F93CF93DF93CDB7DEB79A
:10140000CA1BDB0B0FB6F894DEBF0FBECDBF09942D
:101410002A88398848885F846E847D848C849B8484
:10142000AA84B984C884DF80EE80FD800C811B8192
:10143000AA81B981CE0FD11D0FB6F894DEBF0FBEC1
:0A144000CDBFED010895F894FFCF31
:10144A00190066016B0101016B0102016B010401C4
:10145A006B01080100010102014040404040404048
:02146A00400040
:00000001FF
