:1000000016C030C02FC02EC02DC02CC02BC02AC09F
:1000100029C0E9C027C026C025C024C023C022C0F3
:1000200021C020C01FC062C1400440140000112440
:100030001FBECFEFD2E0DEBFCDBF11E0A0E0B1E048
:10004000E0E6FEE102C005900D92A430B107D9F7B9
:1000500012E0A4E0B1E001C01D92A032B107E1F7C7
:1000600002D0FCCECDCFAF92BF92CF92EF92FF9253
:100070000F931F93CF93DF93809100019091010123
:1000800064EF71E0A2DE90938900809388008091F4
:100090006F00826080936F00809181008260809306
:1000A00081008091810088608093810080910401AB
:1000B000909105019093BB018093BA012091840037
:1000C00030E03093C3012093C20140918500942F0A
:1000D00080E0822B932B9093C3018093C20100E8B0
:1000E0000093610001E00093610085B7806185BFE6
:1000F00080E062E040E02AE003E097E0E92ECC24D3
:10010000EBDB83E065E040E02AE0A2DB86E060E034
:100110004AE023E009D687E060E04AE023E004D625
:1001200080E096E063E27BE02BD784E080932201BD
:1001300084E18093250195E090932601109224019B
:100140008093230181E08093210183E08093270144
:1001500010924E0110924D0150D17894E6D18091C9
:1001600006018823E1F31092060180910401909129
:1001700005019093C5018093C4018091840090E0B3
:100180009093C7018093C60120918500B22EAA24C6
:100190008A299B299093C7018093C601809104010D
:1001A000909105014BD68C0180910401909105013D
:1001B0009093BF018093BE018091840090E0909362
:1001C000BD018093BC0120918500322F20E0E90120
:1001D0008C2B9D2B9093BD018093BC01C8017ED2D6
:1001E00010FDC3CFBBCF1F920F920FB60F921124F9
:1001F0002F933F938F939F938091B2019091B3017E
:10020000009729F001979093B3018093B20181E0A8
:1002100080930601809104019091050120910001D5
:1002200030910101820F931F909305018093040187
:100230009F918F913F912F910F900FBE0F901F9024
:1002400018951092BE001092B9008AE08093B80011
:100250008FEF8093BB0084E08093BC000895809171
:10026000BC00817008958AE090E09093B301809380
:10027000B2019091F50180E02091F601820F911D6D
:1002800090930A018093090180E280930801109203
:10029000070185EA8093BC008091BC0080FDFCCF03
:1002A00008958AE090E09093B3018093B20181E2D7
:1002B000809308011092070185EA8093BC00809129
:1002C000BC0080FDFCCF8091070180FD0EC0EAECF0
:1002D000F1E080E090E002C01192019620910901C6
:1002E00030910A0128173907B8F708951F920F9225
:1002F0000FB60F9211242F933F934F935F936F93F9
:100300007F938F939F93AF93BF93EF93FF93DF936D
:10031000CF930F92CDB7DEB78091B900883209F143
:10032000893240F48031A1F08831D9F0883009F069
:100330004DC00EC08034D1F1813420F4883309F0EF
:1003400045C042C0803559F1883509F03FC032C000
:1003500010920C0110920B01809108018093BB0058
:1003600027C080910B0190910C01209109013091DF
:100370000A012817390760F0FC01EC50FE4F20817C
:100380002093BB00019690930C0180930B0110C049
:100390008091070181608093070184ED18C08091EE
:1003A000BB00CBD289838981882311F085EC0FC0F3
:1003B00085E80DC08091BB00C0D2809107018160AB
:1003C0008093070184E903C085EA01C084E080933B
:1003D000BC000F90CF91DF91FF91EF91BF91AF9152
:1003E0009F918F917F916F915F914F913F912F914D
:1003F0000F900FBE0F901F90189523DF84EB91E0B4
:1004000087D410D20AD32091B8013091B901821754
:10041000930711F471D30895C90115D320D343D3A1
:1004200008959093100180930F01709312016093CF
:100430001101509314014093130108950F931F93DA
:1004400025D224D2082F22D221D2182F1FD21ED279
:1004500000930F01109210011093110110921201DC
:1004600080931301109214011F910F910895EF9240
:10047000FF92CF93DF930AD28093210107D280931A
:10048000220104D28093230101D280932401FED162
:1004900080932501FBD180932601F8D18093270119
:1004A000F5D1982F80E0EC01D0930101C0930001B9
:1004B000EDD190E08C2B9D2B909301018093000156
:1004C000CED2DF91CF91FF90EF900895CF93DF933D
:1004D000DDD1C82FD0E0DAD193E0CC0FDD1F9A95A3
:1004E000E1F7CD5ADE4F8B83D1D18B739C81947C05
:1004F000892B8C83D8D2DF91CF9108950F931F93CE
:10050000CF93DF938C018091CB01C82FD0E005C041
:10051000F80181918F0194D121972097C9F7C5D116
:10052000DF91CF911F910F910895EDD18823E9F0CC
:10053000ADD1823161F0833118F4813181F405C08D
:10054000833141F0853159F407C078DF08C08FDF6F
:100550009DD105C0BBDF03C080E090E0CFDF1092EB
:10056000CA011092C9011092C801089580E268D1B1
:100570009CD1089581E264D181E090EF70D181E057
:100580005FD181E05DD182E05BD18091B40158D12F
:100590008091B8019091B90162D180E090E05FD183
:1005A00088E04ED180910D0190910E0158D17DD1FE
:1005B000089582E245D18091210142D180912201AA
:1005C0003FD1809123013CD18091240139D1809188
:1005D000250136D18091260133D18091270130D178
:1005E00080910001909101013AD184EF91E037D1DF
:1005F00080E026D15AD10895CF93DF9383E220D1B2
:1006000081E01ED1C6E5D1E088811AD1898118D157
:100610008A8116D18B8114D1289681E0C639D807FA
:1006200099F743D1DF91CF9108950F931F93CF9303
:10063000DF9384E205D1C8E2D1E08E01898100D147
:100640002296F8018081FCD0F1E0C833DF07A9F7DA
:100650002CD1DF91CF911F910F9108950F931F938C
:10066000CF93DF9385E2ECD0C8E3D1E08E0189819E
:10067000E7D02296F8018081E3D0F1E0C834DF07AB
:10068000A9F713D1DF91CF911F910F9108950F9387
:100690001F9386E2D5D010E008C0812F6DD3082FBC
:1006A000892FCED0802FCCD01F5F80919301181757
:1006B000A0F3FBD01F910F91089587E2C1D088E08D
:1006C000BFD082E0BDD080914801BAD0809149016D
:1006D000B7D080914A01B4D0E8D008952091180194
:1006E0002F5F2F70209318019C0126703070211508
:1006F000310549F0209115013091160120643093A5
:1007000016012093150183FF09C080911501909176
:1007100016018061909316018093150180910F015D
:10072000909110012091130130911401822B932B91
:100730002091110130911201409115015091160143
:1007400024233523822B932B90930E0180930D014C
:1007500080FD10DF80910D0181FD2BDF80910D0167
:1007600082FD4ADF80910D0183FD5FDF80910D01E5
:1007700084FD74DF80910D0186FD9FDF80910D0166
:1007800085FD85DF80910D0190910E01009709F4A0
:10079000EDDE1092100110920F0120910D013091A9
:1007A0000E012095309580911501909116018223BC
:1007B0009323909316018093150108958091BA01B7
:1007C0009091BB014CD08091C2019091C30147D060
:1007D0008091C4019091C50142D08091C601909151
:1007E000C7013DD08091BE019091BF0138D080916A
:1007F000BC019091BD0133D058D008950F931F9341
:10080000CF93DF93EC018B0104C0899119D0015083
:10081000104001151105C9F748D0DF91CF911F9104
:100820000F9108958BE18093F40184E090E0909320
:100830001F0280931E021092C9011092C8010895F0
:1008400020911E0230911F02F901EC50FE4F80836F
:100850002F5F3F4F30931F0220931E020895209177
:100860001E0230911F0244EF51E0FA01E20FF31F24
:1008700090832F5F3F4F420F531FFA0180832F5FFA
:100880003F4F30931F0220931E0208952091C8010C
:100890003091C901F901E653FE4F80812F5F3F4F30
:1008A0003093C9012093C8010895209117012F5F4B
:1008B0002F702093170180911E0290911F02909338
:1008C000F5018093F601309118013295307F320F97
:1008D0003093F701E5EFF1E040E021E030E004C0C3
:1008E000519145272F5F3F4F28173907C8F38C5088
:1008F0009E4FFC014083B7DC84E090E090931F02A0
:1009000080931E02089580911E018F5F80931E01C7
:100910008A3079F410921E01C4DC8091CA018B31B7
:1009200051F484E090E09093C9018093C80181E084
:10093000089580E0089580E0089590911901913024
:1009400069F0913030F0923089F0933009F050C066
:1009500026C08B3109F04CC081E04BC08093CB01A5
:1009600010921C0180931D0182E043C08093CC0152
:1009700090E020911C0130911D01822B932B9093CC
:100980001D0180931C01049721E08B30920780F5B4
:1009900083E090E090931B0180931A0127C020917F
:1009A0001A0130911B01F901E653FE4F80838091BB
:1009B0001C0190911D012817390791F4EBECF1E02F
:1009C00081E090E040E003C051914527019628174F
:1009D0003907D0F7442361F48BE18093CA0108C042
:1009E0002F5F3F4F30931B0120931A0183E001C01A
:1009F00080E0809319010895F999FECF81BD60BD13
:100A00008F9384E08FBB82E08FBB8F910895F9991B
:100A1000FECF81BDF89A80B50895EF92FF92CF93F3
:100A2000DF9380E090E0F3DFC82FD0E081E090E03A
:100A3000EEDF382F20E0C22BD32BCE01DF91CF91F8
:100A4000FF90EF9008951F93682F192F80E090E09A
:100A5000D3DF81E090E0612FCFDF1F91089582E026
:100A600090E060912101C8DF83E090E06091220175
:100A7000C3DF84E090E060912301BEDF85E090E079
:100A800060912401B9DF86E090E060912501B4DF38
:100A900087E090E060912601AFDF88E090E0609110
:100AA0002701AADF0895FF920F931F93CF93DF933F
:100AB000FF2418C00F2D10E0C801880F991FE8010E
:100AC00033E0CC0FDD1F3A95E1F7CD5ADE4F0996A2
:100AD0006B8192DF0B5F1F4FC801880F991F6C81DC
:100AE0008BDFF39480919301F81620F3DF91CF917F
:100AF0001F910F91FF900895FF920F931F93CF9333
:100B0000DF9382E090E083DF8093210183E090E037
:100B10007EDF8093220184E090E079DF80932301DF
:100B200085E090E074DF8093240186E090E06FDF41
:100B30008093250187E090E06ADF8093260188E0BA
:100B400090E065DF80932701FF2418C00F2D10E08F
:100B5000C801880F991F09965ADFE80163E0CC0F9E
:100B6000DD1F6A95E1F7CD5ADE4F8B830B5F1F4F78
:100B7000C801880F991F4BDF8C83F39480919301F8
:100B8000F81620F3DF91CF911F910F91FF900895F8
:100B90003F939F933AB1982F909539233AB934B146
:100BA000392334B93BB1382B3BB935B1392335B989
:100BB00034B1382B34B99F913F9108953F937F937F
:100BC0009F9374B1982F9095792374B93AB1382BCB
:100BD0009323782B3AB99AB974B99F9189B1862336
:100BE0007F913F9108953F939F93982F90953BB1AC
:100BF00039233BB93AB1382B3AB99F913F910895C7
:100C00008F929F92AF92BF92DF92EF92FF920F93DB
:100C10001F93CF93DF931FB71078E82EFF24F701BF
:100C2000E356FE4FD080F8948D2DB2DF0D2DC0E03D
:100C3000D0E040E091E0A92EB12C812C80E2982EEA
:100C4000D5FD1BC08FB7812B8FBF00000000F8942B
:100C50008D2D602FB3DF482F2196809102018F5F89
:100C600080930201823030F0823021F0833011F025
:100C7000109202014423B9F4E3CFE8E2F1E020E06E
:100C800030E0C501022E02C0880F991F0A94E2F7D6
:100C9000802311F0918280822F5F3F4F329628305F
:100CA000310579F700E08FB7812B8FBFE8E2F1E0E3
:100CB00020E030E0C501022E02C0880F991F0A947F
:100CC000E2F7982F842321F090950923D183C083E4
:100CD0002F5F3F4F32962830310561F7F89400239B
:100CE00009F0AECF8DE991E0E80EF91EF7018081A1
:100CF0007ADF8FB7182B1FBFDF91CF911F910F9114
:100D0000FF90EF90DF90BF90AF909F908F900895ED
:100D1000FC0180E494E1918380831382128280E459
:100D200094E09583848308950F931F93909193018A
:100D3000E92FF0E003E511E053E0EE0FFF1F5A95B5
:100D4000E1F7D801AE0FBF1F13964C9313970E0F08
:100D50001F1F677015968C93159716968C932370AA
:100D6000660F660F660F262BF80124839F5F909312
:100D700093011F910F910895EF92FF921F93CF93CC
:100D8000DF93282FE82EFF24F701A3E0EE0FFF1FCB
:100D9000AA95E1F7ED5AFE4F6581838190E00090BE
:100DA000210102C0959587950A94E2F7182F8430A7
:100DB00008F414E080919301281718F020E030E047
:100DC00036C0E70173E0CC0FDD1F7A95E1F7C95A11
:100DD000DE4F9881892F807C21F5862F2CD19C01B4
:100DE000412F50E016951695812F90E0841B950BAE
:100DF000821793071CF488818B7F88838827992723
:100E0000841B950B8217930794F0F70163E0EE0FB4
:100E1000FF1F6A95E1F7E95AFE4F80818460808365
:100E200006C09B7F9883822F412F8BD79C01C901DD
:100E3000DF91CF911F91FF90EF900895FF920F9354
:100E40001F93CF93DF9310924C0110924B0120918E
:100E50004F01309150019093500180934F01409188
:100E6000510150915201421B530B480F591FFF244F
:100E700003C0F394485C5040483C5105D0F7509370
:100E800052014093510180919401882341F08F15C4
:100E900018F41092940103C08F1980939401B6D373
:100EA000E0914D01F0914E01309709F0099510E065
:100EB00000E005C0812F6F2DD3D0082B1F5F6091FC
:100EC00093011617B8F3002349F080914B019091DC
:100ED0004C01916090934C0180934B01109248011A
:100EE000A3E5B1E030E041E050E017C08C9188719B
:100EF00091F0E32FE695E695E695F0E0E85DFE4F8C
:100F0000832F8770EA0102C0CC0FDD1F8A95E2F7BC
:100F100020A12C2B20A33F5F1896361738F3809121
:100F20004B0190914C01CDB7DEB7E5E089C7109237
:100F300093011092A50184E08093220194E19093A3
:100F4000250185E0809326011092240190932301CE
:100F500081E08093210183E08093270146D31092A2
:100F60004E0110924D0108951F9310E003C0812F90
:100F700050D01F5F809193011817C8F31F910895F7
:100F8000EF92FF921F93CF93DF93EC017B0110E070
:100F900003C0812F3ED01F5F809193011817C8F3C3
:100FA0001092500110924F01D0932001C0931F0165
:100FB000C70116D3DF91CF911F91FF90EF90089555
:100FC000E82FF0E093E0EE0FFF1F9A95E1F7DF01C5
:100FD000AD5ABE4F15962C91159716963C911697C3
:100FE00082E08C9380914B0190914C0182609093B0
:100FF0004C0180934B01EB5AFE4F108280E806C0F3
:10100000E22FF0E0EB56FE4F80832F5F3217C0F7E0
:1010100008951F93182FD4DFE12FF0E023E0EE0FA7
:10102000FF1F2A95E1F7ED5AFE4F81E080838FE0A4
:1010300081831F91089590E0FC013896A8E2B1E009
:10104000EE0FFF1FEA0FFB1F880F991FA80FB91F94
:10105000208131818D919C91281B390BC901089504
:10106000A0E0B0E0E5E3F8E0C6C6782EE62E84DE28
:101070005C01C72DD0E0FE0173E0EE0FFF1F7A95F3
:10108000E1F7E95AFE4F5081FE0163E0EE0FFF1FCA
:101090006A95E1F7ED5AFE4F4381242F30E0852F0A
:1010A000837090E0019602C0359527958A95E2F706
:1010B000822F223008F482E0242F30E0B901681B2F
:1010C0007109FE0143E0EE0FFF1F4A95E1F7DF01D2
:1010D000AD5ABE4F8C91843009F4ECC0853030F4A9
:1010E000813071F0823009F075C259C0803109F445
:1010F00096C1803209F444C2883009F06BC201C243
:1011000020914B0130914C01326015966C911597EE
:1011100016967C9116978F01AD014F5F5F4F2AC0E5
:10112000DA018C91A62FB0E08A3060F0AA0FBB1FC5
:10113000FD01E85DFE4F80819181A85CBE4F8D93DB
:101140009C9316C0AA0FBB1FED01C85CDE4F8881BF
:101150009981A85DBE4FED91FC91E817F90710F455
:10116000019704C08E179F0720F401969983888306
:1011700028606F5F7617A0F630934C0120934B01E7
:10118000F801ED5AFE4F818181508183882311F44B
:10119000872D16DF809123018093940119C252FF9D
:1011A0000AC01596EC911597F0E0EB56FE4F1082B1
:1011B00080E28C93FEC1C501B7FE02C080E090E0E2
:1011C0008217930770F063E0CC0FDD1F6A95E1F79B
:1011D000FE01ED5AFE4F84E08083CB5ADE4F188229
:1011E000EEC1EE2009F4F6C180919401882309F044
:1011F000F1C1FE0143E0EE0FFF1F4A95E1F7ED5A02
:10120000FE4F1581D680F0902601B0E8FB0E00E875
:1012100080912501081B60914B0170914C0130E8D1
:10122000C32E40C0412F50E0EA01CC0FDD1FC85C47
:10123000DE4F28813981FA01EE0FFF1FE85DFE4F76
:101240000190F081E02D2E173F0760F4FA01EB5674
:10125000FE4F80818E0D80838F1518F1C0822F5F25
:101260003F4F0EC0DA01AB56BE4FE217F30760F4F2
:101270008C918E198C930817A0F0CC92215030409D
:101280003983288368600DC09C91913810F091508B
:101290009C93FA01EB56FE4F808187FD02C08F5F61
:1012A00080831F5FD11608F0BDCF70934C0160930F
:1012B0004B0190C1C501B7FE02C080E090E08217EB
:1012C000930708F46DC18091230180939401DE019E
:1012D00083E0AA0FBB1F8A95E1F7AB5ABE4F8C91F2
:1012E0008F5F8C93FE0113E0EE0FFF1F1A95E1F75D
:1012F000E95AFE4F808190E088739070F3E09695F4
:101300008795FA95E1F7682E882309F44DC0DD240E
:10131000CC247E01E3E0EE0CFF1CEA95E1F7E6E564
:10132000F1E0EE0EFF1E4D0139C0D714B1F10D2DC5
:1013300010E0F80173E0EE0FFF1F7A95E1F7E95A2C
:10134000FE4F808190E08873907063E0969587955A
:101350006A95E1F7681609F58D2D0EDDF80153E069
:10136000EE0FFF1F5A95E1F7ED5AFE4F2381821BC6
:101370009109D7012C91A501421B51094817590722
:101380001CF4D4011C9207C0E081E03111F0E83078
:1013900021F4F4011082CC24C394D394809193015E
:1013A000D81618F2CC2079F480912201882359F0C4
:1013B00080914B0190914C01986090934C018093E7
:1013C0004B0111E001C010E0FE0143E0EE0FFF1FF2
:1013D0004A95E1F7EB5AFE4F9081809122019817D0
:1013E00008F4F9C080914B0190914C018360909377
:1013F0004C0180934B0133E0CC0FDD1F3A95E1F7B0
:10140000FE01ED5AFE4F80E180831182C95ADE4F02
:101410008881807C09F4DFC0872DCBD2DCC052FFED
:1014200010C01596EC911597F0E0EB56FE4F80E852
:10143000808380E28C9380914B0190914C0190616C
:1014400056C0C501B7FE02C080E090E040914B015C
:1014500050914C018617970778F493E0CC0FDD1F6D
:101460009A95E1F7CD5ADE4F88E088835460509317
:101470004C0140934B013FC0416050934C0140935D
:101480004B01FE0183E0EE0FFF1F8A95E1F7EB5A57
:10149000FE4F908180912201981710F49F5F9083F6
:1014A000FE0113E0EE0FFF1F1A95E1F7E95AFE4F18
:1014B0008081807C11F0872D0CD390912401992399
:1014C00069F0FE01B3E0EE0FFF1FBA95E1F7ED5AA8
:1014D000FE4F8181891720F48E0D818310E00CC0AE
:1014E000872D97DD80914B0190914C0192609093F4
:1014F0004C0180934B0111E0809123018093940172
:101500006AC08091230180939401FE01A3E0EE0F55
:10151000FF1FAA95E1F7EB5AFE4F8081882309F45B
:101520003FC0C501B7FE02C080E090E040914B0192
:1015300050914C016817790788F4FE0163E0EE0FC3
:10154000FF1F6A95E1F7ED5AFE4F80E1808341600D
:1015500050934C0140934B0110E006C054605093EF
:101560004C0140934B0111E0FE0153E0EE0FFF1FD1
:101570005A95E1F7EB5AFE4F8081815080832BC052
:101580001596EC911597F0E0EB56FE4F90819F5F1A
:10159000908352FD08C097FF03C080E18C931AC06E
:1015A000872D0EDD17C080912701981740F0872DF9
:1015B00030DD80914B0190914C01906105C080918C
:1015C0004B0190914C01946090934C0180934B019E
:1015D00011E001C010E0812FCDB7DEB7EEE027C4E7
:1015E000FC01009709F00995089510929D01109251
:1015F0009E011092A1011092A20110929F011092DF
:10160000A0011092A3011092A401089580919F015E
:1016100090919D01892B41F0E0911F01F0912001F3
:10162000309711F080E009958091A00190919E0182
:10163000892B41F0E0911F01F0912001309711F0CA
:1016400081E0099508954F925F926F927F928F92F9
:101650009F92AF92BF92DF92EF92FF920F931F93F0
:10166000CF93DF93C2DF80919301E7E5F1E0882417
:1016700099245401EE24FF248701482F50E093E081
:10168000440F551F9A95E1F74E0F5F1F2DC08081C3
:10169000807C9181882389F481E0482E512C612C33
:1016A000712C04C0440C551C661C771C9A95D2F70B
:1016B00084289528A628B72816C03281292F11C062
:1016C00081E090E0A0E0B0E0022E04C0880F991FF6
:1016D000AA1FBB1F0A94D2F7E82AF92A0A2B1B2B50
:1016E0002F5F321768F73896E417F50781F6DD2487
:1016F00050E0C1E0D0E0772473942D2D30E0D80184
:10170000C7010D2C04C0B695A795979587950A94A7
:10171000D2F781709070892B09F44DC0652F70E06D
:10172000CE010D2C02C0880F991F0A94E2F7FB012D
:10173000E356FE4F4081482B40832730310571F03E
:101740002F5F3F4FCE01022E02C0880F991F0A94CF
:10175000E2F721503040482B408306C0FB01E156A0
:10176000FE4F808181608083C90102968830910597
:1017700088F4FB01E356FE4F8D2D90E002969E010A
:1017800002C0220F331F8A95E2F7C9012081282B5E
:1017900020830EC0FB01E156FE4F877090709E01C2
:1017A00002C0220F331F8A95E2F78081822B80834B
:1017B00032E0D30E1FC0D501C4010D2C04C0B69574
:1017C000A795979587950A94D2F781709070892B89
:1017D00011F480E010C0E52FF0E0E356FE4FCE019B
:1017E0000D2C02C0880F991F0A94E2F79C0180819A
:1017F000822B808381E0552311F050E004C08823C0
:1018000009F451E05725D39497E09D1508F075CF62
:1018100080919D018093A10180919E018093A201FE
:1018200080919F018093A3018091A0018093A401E6
:10183000DF91CF911F910F91FF90EF90DF90BF90BC
:10184000AF909F908F907F906F905F904F90089592
:10185000CF92DF92EF920F9330919301E32FF0E05C
:1018600073E5C72E71E0D72E53E0EE0FFF1F5A9598
:10187000E1F7D601AE0FBF1F13962C931397CE0E30
:10188000DF1E2091A50117962C9317974770159688
:101890008C93159716966C930370440F440F440F66
:1018A000042B822F90E063E070E08FD2FC01EA55B8
:1018B000FE4FE294EE0C80EEE822E2822F5F20934E
:1018C000A5010064F60104833F5F309393010F91FB
:1018D000EF90DF90CF900895CF92DF92EF920F9329
:1018E00030919301E32FF0E073E5C72E71E0D72E1E
:1018F00053E0EE0FFF1F5A95E1F7D601AE0FBF1F61
:1019000013962C931397CE0EDF1E2091A5011796E8
:101910002C931797477015968C93159716966C9382
:101920000370440F440F440F042B822F90E063E0B8
:1019300070E04BD2FC01EA55FE4FE294EE0CA0EEB3
:10194000EA22E2822F5F2093A5010068F60104835A
:101950003F5F309393010F91EF90DF90CF90089508
:101960006115710511F14F5F03C04150880F991F38
:1019700097FD06C04423C9F703C04F5F660F771F6A
:1019800077FFFBCF20E030E00CC0220F331F86171B
:10199000970720F0861B970B2F5F3F4F415076959E
:1019A0006795442321F037FFF0CF2FEF3FEFC901B8
:1019B0000895E82FF0E083E0EE0FFF1F8A95E1F72E
:1019C000ED5AFE4F2781E6EAF1E0822F90E063E0D6
:1019D00070E0FBD1DF01A80FB91F822F90E063E018
:1019E00070E0F3D1E80FF91F8281816012968C9329
:1019F00008959F92AF92BF92CF92DF92EF92FF92A3
:101A00000F931F93982E082F10E068010894C11CB3
:101A1000D11CF801399678E2E72E71E0F72EEE0F2F
:101A2000FF1FEE0DFF1D58E0A52EB12CA00EB11E1C
:101A3000AA0CBB1CAE0CBF1CD5016D917C918081A2
:101A400091814CE08DDFBC01CC0CDD1CCE0CDF1C89
:101A5000F601808191814CE083DF6C01065F1F4FAE
:101A6000F801EE0FFF1FEE0DFF1DD5016D917C916A
:101A7000808191814CE074DFBC0108501040000F60
:101A8000111FE00EF11EF701808191814CE068DFAB
:101A90008C01892DD0DA9093AD018093AC01D501F2
:101AA0008D919C919C012C193D093093AF0120939D
:101AB000AE01801B910B9093B1018093B0011F91F7
:101AC0000F91FF90EF90DF90CF90BF90AF909F90DD
:101AD0000895A0E0B0E0EEE6FDE091C1082F10E02F
:101AE000F801A3E0EE0FFF1FAA95E1F7ED5AFE4FB4
:101AF0008781C82EDD24C60163E070E066D1DC0179
:101B0000AA55BE4F1296FC90858173DF8091AC017F
:101B10009091AD01E091AE01F091AF018E179F075A
:101B200074F02091B0013091B101E217F30714F085
:101B3000BC0114C0B9019F01C0E0D0E012C04091C7
:101B4000B0015091B1014817590734F0BF019C0111
:101B5000CA01C0E0D0E205C0BC019A01CF01C0E0DB
:101B6000D0E1680F791F621B730B621B730B821B22
:101B7000930B4CE0F5DEC80FD91FF80173E0EE0FB0
:101B8000FF1F7A95E1F7E95AFE4F8081807C80380B
:101B900039F080E090E36FEFA62E6FE2B62E16C00C
:101BA000CE018756924082539B4208F0C6C087E020
:101BB000C333D80718F4C0E0D0E002C0C253D74006
:101BC0008BE991E25BE9A52E51E2B52E2F2D2295EE
:101BD00026952770322F3F5FE12C41E0F42E02C0A2
:101BE000F694E7942F5F2830D8F3353020F4B7010E
:101BF000660F771F07C0373010F4B70103C0B70175
:101C00007695679540E0ACDEDC01E3E0000F111F44
:101C1000EA95E1F7095A1E4FF8018081807C8034F3
:101C2000F9F4C60163E070E0D0D0FC01EA55FE4F44
:101C30002081318188E12030380740F02050384140
:101C4000C217D30768F4C050D04D0AC0C9018050F4
:101C5000984E8C179D0720F42050304D31832083FF
:101C6000C60163E070E0B1D0FC01EA55FE4F82810D
:101C700080FF05C08E7F828320E030E006C081FDBA
:101C800003C020E030E003C09D01A0E0B0E0C60149
:101C900063E070E09AD0FC01EA55FE4F80819181AB
:101CA000280F391FC217D30718F082818D7F07C014
:101CB000AC0FBD1F8A179B0728F082818260828348
:101CC000D183C083C60163E070E07FD0FC01EA5598
:101CD000FE4F8081918120E38030920720F0805078
:101CE000904391838083C501B70140E039DE9C01B8
:101CF000C60163E070E069D0FC01EA55FE4F8081C7
:101D00009181B90140E02CDE2E2D2150622F70E030
:101D10009C016817790708F49B01F601E85DFE4F06
:101D200081A1821751F021A380914B0190914C0128
:101D3000846090934C0180934B01CDB7DEB7EAE00D
:101D40007AC00F931F93082F862F142F52DEE09135
:101D5000AC01F091AD012091AE013091AF016091E5
:101D6000B0017091B101C901522F492FE217F30759
:101D70001CF4CF015E2F492F852F942FAC016417DF
:101D800075070CF4AB012E0F3F1F260F371F812F55
:101D900090E0909581959F4F8217930764F0E02F14
:101DA000F0E0B3E0EE0FFF1FBA95E1F7E95AFE4FFE
:101DB000808184608083241B350B241B350B241BFE
:101DC000350BC9011F910F9108955527002480FFFD
:101DD00002C0060E571F660F771F6115710521F0AF
:101DE00096958795009799F7952F802D08952F92B6
:101DF0003F924F925F926F927F928F929F92AF929B
:101E0000BF92CF92DF92EF92FF920F931F93CF93E7
:101E1000DF93CDB7DEB7CA1BDB0B0FB6F894DEBF7E
:101E20000FBECDBF09942A88398848885F846E84A4
:101E30007D848C849B84AA84B984C884DF80EE80EE
:101E4000FD800C811B81AA81B981CE0FD11D0FB6F7
:101E5000F894DEBF0FBECDBFED010895F894FFCF1B
:041E60001900010064
:00000001FF
