:10000000702400205905000055050000450500003A
:1000100000000000000000000000000000000000E0
:100020000000000000000000000000005505000076
:10003000000000000000000055050000550500000C
:100040005505000055050000550500005505000048
:100050005505000055050000550500005505000038
:100060005505000055050000550500005505000028
:100070005505000055050000550500005505000018
:100080005505000055050000550500005505000008
:1000900055050000550500005505000055050000F8
:1000A00008B5064B06480333191A062900D808BDBF
:1000B000044A002AFBD09047F9E7C04674070000C5
:1000C000740700000000000008B50748074B191A24
:1000D0008B10DA0FD118491000D108BD044B002B4A
:1000E000FBD09847F9E7C04674070000740700008A
:1000F0000000000010B5074C2378002B09D1FFF752
:10010000CFFF0548002802D0044800E000BF0121CD
:10011000217010BD380400200000000074070000AA
:1001200008B5094B002B03D00848094900E000BF7F
:1001300008480168002903D0074A002A00D09047E8
:10014000FFF7C2FF08BDC0460000000074070000B2
:100150003C040020740700000000000000B583B0DC
:1001600001A901234B700B703F20044B984780225C
:100170001206034B5A6103B000BDC04611020000D5
:100180008044004108B5024B9847024B9847FEE770
:10019000490500005D01000000B50D4B1B68002BF8
:1001A00010D1EFF31083002B09D172B6BFF35F8F2C
:1001B0000022084B1A700122074B1A7002E000223D
:1001C000054B1A70024B1A6801321A6000BDC04616
:1001D00054040020000000205804002000B5094B02
:1001E0001A68013A1A601B68002B09D1064B1B786C
:1001F000002B05D00122054B1A70BFF35F8F62B64A
:1002000000BDC04654040020580400200000002017
:1002100000B583B001AB80221A700A785A704A7810
:100220009A70191C014B984703B000BD19050000D6
:1002300030B50C4B1C6A02780321114009020A4AAE
:1002400014400C43817801221140C9018025AC4340
:100250000C4341780A40910140229443221C0A43F6
:100260001A6230BD00080040FFFCFFFF00B5072800
:100270003BD880001E4B1B589F46002036E01D4B8C
:10028000196A02220A431A6200202FE0194B996969
:1002900002220A439A61002028E0164B198A0222A2
:1002A0000A431A82002021E0124B998A02220A4353
:1002B0009A8200201AE0104B196802220A431A6041
:1002C0001A680E4B1A400B4B9A84191C1022CB68EB
:1002D0001A42FCD0084A9168064BD962516899626B
:1002E000126892B29A84002000E0172000BDC04638
:1002F00028070000000800405C0400207FFF000089
:1003000030B585B0164A174B9A60174B5A681E21B4
:100310008A435A6003A80024447001258570047044
:10032000124B98470620124B9847124B984701955D
:100330006A46547006231370147254720020694682
:100340000D4B984700200D4B98470D4B1C721978A8
:1003500004220A431A705C729C7205B030BDC0461C
:10036000103600000008004000400041310200004B
:100370006D02000085030000A90300006104000075
:100380000004004000B5064B996908220A439A61AF
:100390000122044B1A70191C0B781A42FCD100BDC3
:1003A00000040040000C004070B5061C0C782402CC
:1003B00004434B78002B02D08023DB021C434B7A92
:1003C000002B02D080231B031C434D68012D18D93C
:1003D0006B1E1D420FD1022D06D9022300220132CD
:1003E0005B009D42FBD800E00022150235438023CC
:1003F0005B031C4306E02D02354380239B021C4314
:1004000000E0351C0B7A002B02D080239B031C4399
:100410000F4A53785BB2002BFBDB0E4B98470E4B19
:100420001E700B4A53785BB2002BFBDB084B9D60C0
:100430001A1C53785BB2002BFBDB054B59688022FA
:1004400052020A4014435C60044B984770BDC0469A
:10045000000C004099010000080C0040DD01000084
:1004600010B5041C0B4A53785BB2002BFBDB0A4B24
:1004700098470A4B1C70074A53785BB2002BFBDB92
:10048000044B5968802252020A435A60044B984731
:1004900010BDC046000C004099010000040C004053
:1004A000DD01000030B51378802B04D01B068024BA
:1004B0006402234300E000235478002C01D0022C76
:1004C0000AD19478002C03D18024A402234302E0B3
:1004D000C024E402234341605478013C012C02D83B
:1004E0000C4C234081600D042D0CA024E4052C430A
:1004F0001C4384620D0CD02424062C431C438462CC
:100500005C0305D59378012B01D1816100E0416145
:1005100030BDC046FFFFFBFF08B5031C0A1CC10924
:100520000020002903D15809C001044940181F21A7
:100530000B4001219940024B984708BD00440041FF
:10054000A504000000B5FEE708B5014B984708BDBB
:100550000103000000B5FEE708B5194B194A9A429D
:1005600003D0194B164A9A4204D3184B184A9A42A0
:100570000FD31BE0134A174B13490331C91A8908DB
:1005800001318900043BC91801CA01C38B42FBD168
:10059000EBE7114B0D490331C91A89080131890074
:1005A000043BC918002204C38B42FCD10B4B7F21B2
:1005B0000B4A8A439A600B4B98470B4B9847FEE7D0
:1005C00000000020740700003804002070040020A0
:1005D00038040020040000203C04002000ED00E06E
:1005E00000000000B506000085010000F7B51E1CE4
:1005F000234B171C1A68051C141CFC34E06C019179
:10060000002803D1A62148001018E06443681F2B7E
:1006100016DD1C4A002A02D1012040422FE0C821E9
:10062000480000E000BF0028F6D0E26C0023026022
:100630004360C622E064C424610054004350035167
:100640004368002D14D0041C883499000F51C22730
:100650007A0082185768012199400F4357601F1C88
:100660002037BF003E51022D02D195682943916089
:100670009E1C0199B4000133215043600020FEBD4F
:10068000480700000000000038B5084B084C1D1C4E
:10069000E01A8410002C06D0A1006A18043A1368EE
:1006A0009847013CF6E700F05DF838BD70070000A0
:1006B0007407000070B50E4B0E4D0024E81A85102B
:1006C0001E1CAC4204D0A100725890470134F8E7D8
:1006D00000F03EF80849094A0E1C541AA5100024DF
:1006E000AC4204D0A300F05880470134F8E770BD55
:1006F0005C0700005C0700005C0700006407000066
:1007000008B5034B002B02D0024800F005F808BDE5
:10071000000000008906000008B5011C0020021C32
:10072000031CFFF763FF08BD9A020000EA02000005
:10073000EA0200007A0200008C020000A802000019
:100740007E020000B60200001000002043000000FE
:10075000F8B5C046F8BC08BC9E46704701070000CB
:1007600021010000F8B5C046F8BC08BC9E467047A1
:04077000F500000090
:100774000100000000000000100000200000000044
:1007840000000000FC02002064030020CC030020D1
:100794000000000000000000000000000000000055
:1007A4000000000000000000000000000000000045
:1007B400000000004C0700000000000000000000E2
:1007C4000000000000000000000000000000000025
:1007D4000000000000000000000000000000000015
:1007E4000000000000000000000000000000000005
:1007F40000000000000000000000000000000000F5
:1008040000000000000000000000000000000000E4
:1008140000000000000000000000000000000000D4
:1008240000000000000000000100000000000000C3
:100834000E33CDAB34126DE6ECDE05000B00000088
:1008440000000000000000000000000000000000A4
:100854000000000000000000000000000000000094
:100864000000000000000000000000000000000084
:100874000000000000000000000000000000000074
:04000003000005599B
:00000001FF
